{
  "_format": "hh-sol-artifact-1",
  "contractName": "DynamicSvgNft",
  "sourceName": "contracts/DynamicSvgNft.sol",
  "abi": [
    {
      "inputs": [
        {
          "internalType": "address",
          "name": "priceFeedAddress",
          "type": "address"
        },
        {
          "internalType": "string",
          "name": "lowSvg",
          "type": "string"
        },
        {
          "internalType": "string",
          "name": "highSvg",
          "type": "string"
        }
      ],
      "stateMutability": "nonpayable",
      "type": "constructor"
    },
    {
      "anonymous": false,
      "inputs": [
        {
          "indexed": true,
          "internalType": "address",
          "name": "owner",
          "type": "address"
        },
        {
          "indexed": true,
          "internalType": "address",
          "name": "approved",
          "type": "address"
        },
        {
          "indexed": true,
          "internalType": "uint256",
          "name": "tokenId",
          "type": "uint256"
        }
      ],
      "name": "Approval",
      "type": "event"
    },
    {
      "anonymous": false,
      "inputs": [
        {
          "indexed": true,
          "internalType": "address",
          "name": "owner",
          "type": "address"
        },
        {
          "indexed": true,
          "internalType": "address",
          "name": "operator",
          "type": "address"
        },
        {
          "indexed": false,
          "internalType": "bool",
          "name": "approved",
          "type": "bool"
        }
      ],
      "name": "ApprovalForAll",
      "type": "event"
    },
    {
      "anonymous": false,
      "inputs": [
        {
          "indexed": true,
          "internalType": "uint256",
          "name": "tokenId",
          "type": "uint256"
        },
        {
          "indexed": false,
          "internalType": "int256",
          "name": "highValue",
          "type": "int256"
        }
      ],
      "name": "CreatedNFT",
      "type": "event"
    },
    {
      "anonymous": false,
      "inputs": [
        {
          "indexed": true,
          "internalType": "address",
          "name": "previousOwner",
          "type": "address"
        },
        {
          "indexed": true,
          "internalType": "address",
          "name": "newOwner",
          "type": "address"
        }
      ],
      "name": "OwnershipTransferred",
      "type": "event"
    },
    {
      "anonymous": false,
      "inputs": [
        {
          "indexed": true,
          "internalType": "address",
          "name": "from",
          "type": "address"
        },
        {
          "indexed": true,
          "internalType": "address",
          "name": "to",
          "type": "address"
        },
        {
          "indexed": true,
          "internalType": "uint256",
          "name": "tokenId",
          "type": "uint256"
        }
      ],
      "name": "Transfer",
      "type": "event"
    },
    {
      "inputs": [
        {
          "internalType": "address",
          "name": "to",
          "type": "address"
        },
        {
          "internalType": "uint256",
          "name": "tokenId",
          "type": "uint256"
        }
      ],
      "name": "approve",
      "outputs": [],
      "stateMutability": "nonpayable",
      "type": "function"
    },
    {
      "inputs": [
        {
          "internalType": "address",
          "name": "owner",
          "type": "address"
        }
      ],
      "name": "balanceOf",
      "outputs": [
        {
          "internalType": "uint256",
          "name": "",
          "type": "uint256"
        }
      ],
      "stateMutability": "view",
      "type": "function"
    },
    {
      "inputs": [
        {
          "internalType": "uint256",
          "name": "tokenId",
          "type": "uint256"
        }
      ],
      "name": "getApproved",
      "outputs": [
        {
          "internalType": "address",
          "name": "",
          "type": "address"
        }
      ],
      "stateMutability": "view",
      "type": "function"
    },
    {
      "inputs": [],
      "name": "getHighSVG",
      "outputs": [
        {
          "internalType": "string",
          "name": "",
          "type": "string"
        }
      ],
      "stateMutability": "view",
      "type": "function"
    },
    {
      "inputs": [],
      "name": "getLowSVG",
      "outputs": [
        {
          "internalType": "string",
          "name": "",
          "type": "string"
        }
      ],
      "stateMutability": "view",
      "type": "function"
    },
    {
      "inputs": [],
      "name": "getPriceFeed",
      "outputs": [
        {
          "internalType": "contract AggregatorV3Interface",
          "name": "",
          "type": "address"
        }
      ],
      "stateMutability": "view",
      "type": "function"
    },
    {
      "inputs": [],
      "name": "getTokenCounter",
      "outputs": [
        {
          "internalType": "uint256",
          "name": "",
          "type": "uint256"
        }
      ],
      "stateMutability": "view",
      "type": "function"
    },
    {
      "inputs": [
        {
          "internalType": "address",
          "name": "owner",
          "type": "address"
        },
        {
          "internalType": "address",
          "name": "operator",
          "type": "address"
        }
      ],
      "name": "isApprovedForAll",
      "outputs": [
        {
          "internalType": "bool",
          "name": "",
          "type": "bool"
        }
      ],
      "stateMutability": "view",
      "type": "function"
    },
    {
      "inputs": [
        {
          "internalType": "int256",
          "name": "highValue",
          "type": "int256"
        }
      ],
      "name": "mintNft",
      "outputs": [],
      "stateMutability": "nonpayable",
      "type": "function"
    },
    {
      "inputs": [],
      "name": "name",
      "outputs": [
        {
          "internalType": "string",
          "name": "",
          "type": "string"
        }
      ],
      "stateMutability": "view",
      "type": "function"
    },
    {
      "inputs": [],
      "name": "owner",
      "outputs": [
        {
          "internalType": "address",
          "name": "",
          "type": "address"
        }
      ],
      "stateMutability": "view",
      "type": "function"
    },
    {
      "inputs": [
        {
          "internalType": "uint256",
          "name": "tokenId",
          "type": "uint256"
        }
      ],
      "name": "ownerOf",
      "outputs": [
        {
          "internalType": "address",
          "name": "",
          "type": "address"
        }
      ],
      "stateMutability": "view",
      "type": "function"
    },
    {
      "inputs": [],
      "name": "renounceOwnership",
      "outputs": [],
      "stateMutability": "nonpayable",
      "type": "function"
    },
    {
      "inputs": [
        {
          "internalType": "address",
          "name": "from",
          "type": "address"
        },
        {
          "internalType": "address",
          "name": "to",
          "type": "address"
        },
        {
          "internalType": "uint256",
          "name": "tokenId",
          "type": "uint256"
        }
      ],
      "name": "safeTransferFrom",
      "outputs": [],
      "stateMutability": "nonpayable",
      "type": "function"
    },
    {
      "inputs": [
        {
          "internalType": "address",
          "name": "from",
          "type": "address"
        },
        {
          "internalType": "address",
          "name": "to",
          "type": "address"
        },
        {
          "internalType": "uint256",
          "name": "tokenId",
          "type": "uint256"
        },
        {
          "internalType": "bytes",
          "name": "_data",
          "type": "bytes"
        }
      ],
      "name": "safeTransferFrom",
      "outputs": [],
      "stateMutability": "nonpayable",
      "type": "function"
    },
    {
      "inputs": [
        {
          "internalType": "address",
          "name": "operator",
          "type": "address"
        },
        {
          "internalType": "bool",
          "name": "approved",
          "type": "bool"
        }
      ],
      "name": "setApprovalForAll",
      "outputs": [],
      "stateMutability": "nonpayable",
      "type": "function"
    },
    {
      "inputs": [
        {
          "internalType": "bytes4",
          "name": "interfaceId",
          "type": "bytes4"
        }
      ],
      "name": "supportsInterface",
      "outputs": [
        {
          "internalType": "bool",
          "name": "",
          "type": "bool"
        }
      ],
      "stateMutability": "view",
      "type": "function"
    },
    {
      "inputs": [
        {
          "internalType": "string",
          "name": "svg",
          "type": "string"
        }
      ],
      "name": "svgToImageURI",
      "outputs": [
        {
          "internalType": "string",
          "name": "",
          "type": "string"
        }
      ],
      "stateMutability": "pure",
      "type": "function"
    },
    {
      "inputs": [],
      "name": "symbol",
      "outputs": [
        {
          "internalType": "string",
          "name": "",
          "type": "string"
        }
      ],
      "stateMutability": "view",
      "type": "function"
    },
    {
      "inputs": [
        {
          "internalType": "uint256",
          "name": "tokenId",
          "type": "uint256"
        }
      ],
      "name": "tokenURI",
      "outputs": [
        {
          "internalType": "string",
          "name": "",
          "type": "string"
        }
      ],
      "stateMutability": "view",
      "type": "function"
    },
    {
      "inputs": [
        {
          "internalType": "address",
          "name": "from",
          "type": "address"
        },
        {
          "internalType": "address",
          "name": "to",
          "type": "address"
        },
        {
          "internalType": "uint256",
          "name": "tokenId",
          "type": "uint256"
        }
      ],
      "name": "transferFrom",
      "outputs": [],
      "stateMutability": "nonpayable",
      "type": "function"
    },
    {
      "inputs": [
        {
          "internalType": "address",
          "name": "newOwner",
          "type": "address"
        }
      ],
      "name": "transferOwnership",
      "outputs": [],
      "stateMutability": "nonpayable",
      "type": "function"
    }
  ],
  "bytecode": "0x60a06040523480156200001157600080fd5b506040516200400f3803806200400f833981810160405281019062000037919062000743565b6040518060400160405280600f81526020017f44796e616d696320535647204e465400000000000000000000000000000000008152506040518060400160405280600381526020017f44534e00000000000000000000000000000000000000000000000000000000008152508160009080519060200190620000bb92919062000491565b508060019080519060200190620000d492919062000491565b505050620000f7620000eb6200019160201b60201c565b6200019960201b60201c565b60006007819055508273ffffffffffffffffffffffffffffffffffffffff1660808173ffffffffffffffffffffffffffffffffffffffff1660601b8152505062000147826200025f60201b60201c565b600890805190602001906200015e92919062000491565b5062000170816200025f60201b60201c565b600990805190602001906200018792919062000491565b5050505062000a2e565b600033905090565b6000600660009054906101000a900473ffffffffffffffffffffffffffffffffffffffff16905081600660006101000a81548173ffffffffffffffffffffffffffffffffffffffff021916908373ffffffffffffffffffffffffffffffffffffffff1602179055508173ffffffffffffffffffffffffffffffffffffffff168173ffffffffffffffffffffffffffffffffffffffff167f8be0079c531659141344cd1fd0a4f28419497f9722a3daafe3b4186f6b6457e060405160405180910390a35050565b606060006040518060400160405280601a81526020017f646174613a696d6167652f7376672b786d6c3b6261736536342c00000000000081525090506000620002d484604051602001620002b491906200082a565b6040516020818303038152906040526200030360201b620011641760201c565b90508181604051602001620002eb92919062000843565b60405160208183030381529060405292505050919050565b606060008251141562000328576040518060200160405280600081525090506200048c565b600060405180606001604052806040815260200162003fcf60409139905060006003600285516200035a9190620008a4565b62000366919062000930565b600462000374919062000968565b90506000602082620003879190620008a4565b67ffffffffffffffff811115620003a357620003a2620005d5565b5b6040519080825280601f01601f191660200182016040528015620003d65781602001600182028036833780820191505090505b509050818152600183018586518101602084015b8183101562000447576003830192508251603f8160121c168501518253600182019150603f81600c1c168501518253600182019150603f8160061c168501518253600182019150603f8116850151825360018201915050620003ea565b600389510660018114620004645760028114620004755762000480565b613d3d60f01b600283035262000480565b603d60f81b60018303525b50505050508093505050505b919050565b8280546200049f90620009f8565b90600052602060002090601f016020900481019282620004c357600085556200050f565b82601f10620004de57805160ff19168380011785556200050f565b828001600101855582156200050f579182015b828111156200050e578251825591602001919060010190620004f1565b5b5090506200051e919062000522565b5090565b5b808211156200053d57600081600090555060010162000523565b5090565b6000604051905090565b600080fd5b600080fd5b600073ffffffffffffffffffffffffffffffffffffffff82169050919050565b6000620005828262000555565b9050919050565b620005948162000575565b8114620005a057600080fd5b50565b600081519050620005b48162000589565b92915050565b600080fd5b600080fd5b6000601f19601f8301169050919050565b7f4e487b7100000000000000000000000000000000000000000000000000000000600052604160045260246000fd5b6200060f82620005c4565b810181811067ffffffffffffffff82111715620006315762000630620005d5565b5b80604052505050565b60006200064662000541565b905062000654828262000604565b919050565b600067ffffffffffffffff821115620006775762000676620005d5565b5b6200068282620005c4565b9050602081019050919050565b60005b83811015620006af57808201518184015260208101905062000692565b83811115620006bf576000848401525b50505050565b6000620006dc620006d68462000659565b6200063a565b905082815260208101848484011115620006fb57620006fa620005bf565b5b620007088482856200068f565b509392505050565b600082601f830112620007285762000727620005ba565b5b81516200073a848260208601620006c5565b91505092915050565b6000806000606084860312156200075f576200075e6200054b565b5b60006200076f86828701620005a3565b935050602084015167ffffffffffffffff81111562000793576200079262000550565b5b620007a18682870162000710565b925050604084015167ffffffffffffffff811115620007c557620007c462000550565b5b620007d38682870162000710565b9150509250925092565b600081519050919050565b600081905092915050565b60006200080082620007dd565b6200080c8185620007e8565b93506200081e8185602086016200068f565b80840191505092915050565b6000620008388284620007f3565b915081905092915050565b6000620008518285620007f3565b91506200085f8284620007f3565b91508190509392505050565b6000819050919050565b7f4e487b7100000000000000000000000000000000000000000000000000000000600052601160045260246000fd5b6000620008b1826200086b565b9150620008be836200086b565b9250827fffffffffffffffffffffffffffffffffffffffffffffffffffffffffffffffff03821115620008f657620008f562000875565b5b828201905092915050565b7f4e487b7100000000000000000000000000000000000000000000000000000000600052601260045260246000fd5b60006200093d826200086b565b91506200094a836200086b565b9250826200095d576200095c62000901565b5b828204905092915050565b600062000975826200086b565b915062000982836200086b565b9250817fffffffffffffffffffffffffffffffffffffffffffffffffffffffffffffffff0483118215151615620009be57620009bd62000875565b5b828202905092915050565b7f4e487b7100000000000000000000000000000000000000000000000000000000600052602260045260246000fd5b6000600282049050600182168062000a1157607f821691505b6020821081141562000a285762000a27620009c9565b5b50919050565b60805160601c61357b62000a5460003960008181610c210152610d0b015261357b6000f3fe608060405234801561001057600080fd5b50600436106101425760003560e01c8063715018a6116100b8578063a22cb4651161007c578063a22cb46514610365578063b88d4fde14610381578063c87b56dd1461039d578063e985e9c5146103cd578063ed28a122146103fd578063f2fde38b1461041b57610142565b8063715018a6146102e357806376f6056b146102ed5780638da5cb5b1461030b57806395d89b41146103295780639e87a5cd1461034757610142565b806323b872dd1161010a57806323b872dd146101fd57806330d871c61461021957806342842e0e146102495780636352211e146102655780636e02007d1461029557806370a08231146102b357610142565b806301ffc9a71461014757806306fdde0314610177578063081812fc14610195578063095ea7b3146101c55780631e930812146101e1575b600080fd5b610161600480360381019061015c9190611f08565b610437565b60405161016e9190611f50565b60405180910390f35b61017f610519565b60405161018c9190612004565b60405180910390f35b6101af60048036038101906101aa919061205c565b6105ab565b6040516101bc91906120ca565b60405180910390f35b6101df60048036038101906101da9190612111565b610630565b005b6101fb60048036038101906101f69190612187565b610748565b005b610217600480360381019061021291906121b4565b6107c0565b005b610233600480360381019061022e919061233c565b610820565b6040516102409190612004565b60405180910390f35b610263600480360381019061025e91906121b4565b6108b3565b005b61027f600480360381019061027a919061205c565b6108d3565b60405161028c91906120ca565b60405180910390f35b61029d610985565b6040516102aa9190612394565b60405180910390f35b6102cd60048036038101906102c891906123af565b61098f565b6040516102da9190612394565b60405180910390f35b6102eb610a47565b005b6102f5610acf565b6040516103029190612004565b60405180910390f35b610313610b61565b60405161032091906120ca565b60405180910390f35b610331610b8b565b60405161033e9190612004565b60405180910390f35b61034f610c1d565b60405161035c919061243b565b60405180910390f35b61037f600480360381019061037a9190612482565b610c45565b005b61039b60048036038101906103969190612563565b610c5b565b005b6103b760048036038101906103b2919061205c565b610cbd565b6040516103c49190612004565b60405180910390f35b6103e760048036038101906103e291906125e6565b610f46565b6040516103f49190611f50565b60405180910390f35b610405610fda565b6040516104129190612004565b60405180910390f35b610435600480360381019061043091906123af565b61106c565b005b60007f80ac58cd000000000000000000000000000000000000000000000000000000007bffffffffffffffffffffffffffffffffffffffffffffffffffffffff1916827bffffffffffffffffffffffffffffffffffffffffffffffffffffffff1916148061050257507f5b5e139f000000000000000000000000000000000000000000000000000000007bffffffffffffffffffffffffffffffffffffffffffffffffffffffff1916827bffffffffffffffffffffffffffffffffffffffffffffffffffffffff1916145b806105125750610511826112dd565b5b9050919050565b60606000805461052890612655565b80601f016020809104026020016040519081016040528092919081815260200182805461055490612655565b80156105a15780601f10610576576101008083540402835291602001916105a1565b820191906000526020600020905b81548152906001019060200180831161058457829003601f168201915b5050505050905090565b60006105b682611347565b6105f5576040517f08c379a00000000000000000000000000000000000000000000000000000000081526004016105ec906126f9565b60405180910390fd5b6004600083815260200190815260200160002060009054906101000a900473ffffffffffffffffffffffffffffffffffffffff169050919050565b600061063b826108d3565b90508073ffffffffffffffffffffffffffffffffffffffff168373ffffffffffffffffffffffffffffffffffffffff1614156106ac576040517f08c379a00000000000000000000000000000000000000000000000000000000081526004016106a39061278b565b60405180910390fd5b8073ffffffffffffffffffffffffffffffffffffffff166106cb6113b3565b73ffffffffffffffffffffffffffffffffffffffff1614806106fa57506106f9816106f46113b3565b610f46565b5b610739576040517f08c379a00000000000000000000000000000000000000000000000000000000081526004016107309061281d565b60405180910390fd5b61074383836113bb565b505050565b80600a60006007548152602001908152602001600020819055506007547f882d3b5a729a8bb95cf6c0083c99b42ecd9637123d4425bd7b768877fd8af8b082604051610794919061284c565b60405180910390a26107a833600754611474565b60016007546107b79190612896565b60078190555050565b6107d16107cb6113b3565b82611492565b610810576040517f08c379a00000000000000000000000000000000000000000000000000000000081526004016108079061295e565b60405180910390fd5b61081b838383611570565b505050565b606060006040518060400160405280601a81526020017f646174613a696d6167652f7376672b786d6c3b6261736536342c000000000000815250905060006108868460405160200161087291906129ba565b604051602081830303815290604052611164565b9050818160405160200161089b9291906129d1565b60405160208183030381529060405292505050919050565b6108ce83838360405180602001604052806000815250610c5b565b505050565b6000806002600084815260200190815260200160002060009054906101000a900473ffffffffffffffffffffffffffffffffffffffff169050600073ffffffffffffffffffffffffffffffffffffffff168173ffffffffffffffffffffffffffffffffffffffff16141561097c576040517f08c379a000000000000000000000000000000000000000000000000000000000815260040161097390612a67565b60405180910390fd5b80915050919050565b6000600754905090565b60008073ffffffffffffffffffffffffffffffffffffffff168273ffffffffffffffffffffffffffffffffffffffff161415610a00576040517f08c379a00000000000000000000000000000000000000000000000000000000081526004016109f790612af9565b60405180910390fd5b600360008373ffffffffffffffffffffffffffffffffffffffff1673ffffffffffffffffffffffffffffffffffffffff168152602001908152602001600020549050919050565b610a4f6113b3565b73ffffffffffffffffffffffffffffffffffffffff16610a6d610b61565b73ffffffffffffffffffffffffffffffffffffffff1614610ac3576040517f08c379a0000000000000000000000000000000000000000000000000000000008152600401610aba90612b65565b60405180910390fd5b610acd60006117d7565b565b606060098054610ade90612655565b80601f0160208091040260200160405190810160405280929190818152602001828054610b0a90612655565b8015610b575780601f10610b2c57610100808354040283529160200191610b57565b820191906000526020600020905b815481529060010190602001808311610b3a57829003601f168201915b5050505050905090565b6000600660009054906101000a900473ffffffffffffffffffffffffffffffffffffffff16905090565b606060018054610b9a90612655565b80601f0160208091040260200160405190810160405280929190818152602001828054610bc690612655565b8015610c135780601f10610be857610100808354040283529160200191610c13565b820191906000526020600020905b815481529060010190602001808311610bf657829003601f168201915b5050505050905090565b60007f0000000000000000000000000000000000000000000000000000000000000000905090565b610c57610c506113b3565b838361189d565b5050565b610c6c610c666113b3565b83611492565b610cab576040517f08c379a0000000000000000000000000000000000000000000000000000000008152600401610ca29061295e565b60405180910390fd5b610cb784848484611a0a565b50505050565b6060610cc882611347565b610d07576040517f08c379a0000000000000000000000000000000000000000000000000000000008152600401610cfe90612bf7565b60405180910390fd5b60007f000000000000000000000000000000000000000000000000000000000000000073ffffffffffffffffffffffffffffffffffffffff1663feaf968c6040518163ffffffff1660e01b815260040160a06040518083038186803b158015610d6f57600080fd5b505afa158015610d83573d6000803e3d6000fd5b505050506040513d601f19601f82011682018060405250810190610da79190612c83565b505050915050600060088054610dbc90612655565b80601f0160208091040260200160405190810160405280929190818152602001828054610de890612655565b8015610e355780601f10610e0a57610100808354040283529160200191610e35565b820191906000526020600020905b815481529060010190602001808311610e1857829003601f168201915b50505050509050600a6000858152602001908152602001600020548212610ee45760098054610e6390612655565b80601f0160208091040260200160405190810160405280929190818152602001828054610e8f90612655565b8015610edc5780601f10610eb157610100808354040283529160200191610edc565b820191906000526020600020905b815481529060010190602001808311610ebf57829003601f168201915b505050505090505b610eec611a66565b610f1d610ef7610519565b83604051602001610f09929190612ec6565b604051602081830303815290604052611164565b604051602001610f2e9291906129d1565b60405160208183030381529060405292505050919050565b6000600560008473ffffffffffffffffffffffffffffffffffffffff1673ffffffffffffffffffffffffffffffffffffffff16815260200190815260200160002060008373ffffffffffffffffffffffffffffffffffffffff1673ffffffffffffffffffffffffffffffffffffffff16815260200190815260200160002060009054906101000a900460ff16905092915050565b606060088054610fe990612655565b80601f016020809104026020016040519081016040528092919081815260200182805461101590612655565b80156110625780601f1061103757610100808354040283529160200191611062565b820191906000526020600020905b81548152906001019060200180831161104557829003601f168201915b5050505050905090565b6110746113b3565b73ffffffffffffffffffffffffffffffffffffffff16611092610b61565b73ffffffffffffffffffffffffffffffffffffffff16146110e8576040517f08c379a00000000000000000000000000000000000000000000000000000000081526004016110df90612b65565b60405180910390fd5b600073ffffffffffffffffffffffffffffffffffffffff168173ffffffffffffffffffffffffffffffffffffffff161415611158576040517f08c379a000000000000000000000000000000000000000000000000000000000815260040161114f90612f88565b60405180910390fd5b611161816117d7565b50565b6060600082511415611187576040518060200160405280600081525090506112d8565b600060405180606001604052806040815260200161350660409139905060006003600285516111b69190612896565b6111c09190612fd7565b60046111cc9190613008565b905060006020826111dd9190612896565b67ffffffffffffffff8111156111f6576111f5612211565b5b6040519080825280601f01601f1916602001820160405280156112285781602001600182028036833780820191505090505b509050818152600183018586518101602084015b81831015611297576003830192508251603f8160121c168501518253600182019150603f81600c1c168501518253600182019150603f8160061c168501518253600182019150603f811685015182536001820191505061123c565b6003895106600181146112b157600281146112c1576112cc565b613d3d60f01b60028303526112cc565b603d60f81b60018303525b50505050508093505050505b919050565b60007f01ffc9a7000000000000000000000000000000000000000000000000000000007bffffffffffffffffffffffffffffffffffffffffffffffffffffffff1916827bffffffffffffffffffffffffffffffffffffffffffffffffffffffff1916149050919050565b60008073ffffffffffffffffffffffffffffffffffffffff166002600084815260200190815260200160002060009054906101000a900473ffffffffffffffffffffffffffffffffffffffff1673ffffffffffffffffffffffffffffffffffffffff1614159050919050565b600033905090565b816004600083815260200190815260200160002060006101000a81548173ffffffffffffffffffffffffffffffffffffffff021916908373ffffffffffffffffffffffffffffffffffffffff160217905550808273ffffffffffffffffffffffffffffffffffffffff1661142e836108d3565b73ffffffffffffffffffffffffffffffffffffffff167f8c5be1e5ebec7d5bd14f71427d1e84f3dd0314c0f7b2291e5b200ac8c7c3b92560405160405180910390a45050565b61148e828260405180602001604052806000815250611aa3565b5050565b600061149d82611347565b6114dc576040517f08c379a00000000000000000000000000000000000000000000000000000000081526004016114d3906130d4565b60405180910390fd5b60006114e7836108d3565b90508073ffffffffffffffffffffffffffffffffffffffff168473ffffffffffffffffffffffffffffffffffffffff16148061152957506115288185610f46565b5b8061156757508373ffffffffffffffffffffffffffffffffffffffff1661154f846105ab565b73ffffffffffffffffffffffffffffffffffffffff16145b91505092915050565b8273ffffffffffffffffffffffffffffffffffffffff16611590826108d3565b73ffffffffffffffffffffffffffffffffffffffff16146115e6576040517f08c379a00000000000000000000000000000000000000000000000000000000081526004016115dd90613166565b60405180910390fd5b600073ffffffffffffffffffffffffffffffffffffffff168273ffffffffffffffffffffffffffffffffffffffff161415611656576040517f08c379a000000000000000000000000000000000000000000000000000000000815260040161164d906131f8565b60405180910390fd5b611661838383611afe565b61166c6000826113bb565b6001600360008573ffffffffffffffffffffffffffffffffffffffff1673ffffffffffffffffffffffffffffffffffffffff16815260200190815260200160002060008282546116bc9190613218565b925050819055506001600360008473ffffffffffffffffffffffffffffffffffffffff1673ffffffffffffffffffffffffffffffffffffffff16815260200190815260200160002060008282546117139190612896565b92505081905550816002600083815260200190815260200160002060006101000a81548173ffffffffffffffffffffffffffffffffffffffff021916908373ffffffffffffffffffffffffffffffffffffffff160217905550808273ffffffffffffffffffffffffffffffffffffffff168473ffffffffffffffffffffffffffffffffffffffff167fddf252ad1be2c89b69c2b068fc378daa952ba7f163c4a11628f55a4df523b3ef60405160405180910390a46117d2838383611b03565b505050565b6000600660009054906101000a900473ffffffffffffffffffffffffffffffffffffffff16905081600660006101000a81548173ffffffffffffffffffffffffffffffffffffffff021916908373ffffffffffffffffffffffffffffffffffffffff1602179055508173ffffffffffffffffffffffffffffffffffffffff168173ffffffffffffffffffffffffffffffffffffffff167f8be0079c531659141344cd1fd0a4f28419497f9722a3daafe3b4186f6b6457e060405160405180910390a35050565b8173ffffffffffffffffffffffffffffffffffffffff168373ffffffffffffffffffffffffffffffffffffffff16141561190c576040517f08c379a000000000000000000000000000000000000000000000000000000000815260040161190390613298565b60405180910390fd5b80600560008573ffffffffffffffffffffffffffffffffffffffff1673ffffffffffffffffffffffffffffffffffffffff16815260200190815260200160002060008473ffffffffffffffffffffffffffffffffffffffff1673ffffffffffffffffffffffffffffffffffffffff16815260200190815260200160002060006101000a81548160ff0219169083151502179055508173ffffffffffffffffffffffffffffffffffffffff168373ffffffffffffffffffffffffffffffffffffffff167f17307eab39ab6107e8899845ad3d59bd9653f200f220920489ca2b5937696c31836040516119fd9190611f50565b60405180910390a3505050565b611a15848484611570565b611a2184848484611b08565b611a60576040517f08c379a0000000000000000000000000000000000000000000000000000000008152600401611a579061332a565b60405180910390fd5b50505050565b60606040518060400160405280601d81526020017f646174613a6170706c69636174696f6e2f6a736f6e3b6261736536342c000000815250905090565b611aad8383611c9f565b611aba6000848484611b08565b611af9576040517f08c379a0000000000000000000000000000000000000000000000000000000008152600401611af09061332a565b60405180910390fd5b505050565b505050565b505050565b6000611b298473ffffffffffffffffffffffffffffffffffffffff16611e79565b15611c92578373ffffffffffffffffffffffffffffffffffffffff1663150b7a02611b526113b3565b8786866040518563ffffffff1660e01b8152600401611b74949392919061339f565b602060405180830381600087803b158015611b8e57600080fd5b505af1925050508015611bbf57506040513d601f19601f82011682018060405250810190611bbc9190613400565b60015b611c42573d8060008114611bef576040519150601f19603f3d011682016040523d82523d6000602084013e611bf4565b606091505b50600081511415611c3a576040517f08c379a0000000000000000000000000000000000000000000000000000000008152600401611c319061332a565b60405180910390fd5b805181602001fd5b63150b7a0260e01b7bffffffffffffffffffffffffffffffffffffffffffffffffffffffff1916817bffffffffffffffffffffffffffffffffffffffffffffffffffffffff191614915050611c97565b600190505b949350505050565b600073ffffffffffffffffffffffffffffffffffffffff168273ffffffffffffffffffffffffffffffffffffffff161415611d0f576040517f08c379a0000000000000000000000000000000000000000000000000000000008152600401611d0690613479565b60405180910390fd5b611d1881611347565b15611d58576040517f08c379a0000000000000000000000000000000000000000000000000000000008152600401611d4f906134e5565b60405180910390fd5b611d6460008383611afe565b6001600360008473ffffffffffffffffffffffffffffffffffffffff1673ffffffffffffffffffffffffffffffffffffffff1681526020019081526020016000206000828254611db49190612896565b92505081905550816002600083815260200190815260200160002060006101000a81548173ffffffffffffffffffffffffffffffffffffffff021916908373ffffffffffffffffffffffffffffffffffffffff160217905550808273ffffffffffffffffffffffffffffffffffffffff16600073ffffffffffffffffffffffffffffffffffffffff167fddf252ad1be2c89b69c2b068fc378daa952ba7f163c4a11628f55a4df523b3ef60405160405180910390a4611e7560008383611b03565b5050565b6000808273ffffffffffffffffffffffffffffffffffffffff163b119050919050565b6000604051905090565b600080fd5b600080fd5b60007fffffffff0000000000000000000000000000000000000000000000000000000082169050919050565b611ee581611eb0565b8114611ef057600080fd5b50565b600081359050611f0281611edc565b92915050565b600060208284031215611f1e57611f1d611ea6565b5b6000611f2c84828501611ef3565b91505092915050565b60008115159050919050565b611f4a81611f35565b82525050565b6000602082019050611f656000830184611f41565b92915050565b600081519050919050565b600082825260208201905092915050565b60005b83811015611fa5578082015181840152602081019050611f8a565b83811115611fb4576000848401525b50505050565b6000601f19601f8301169050919050565b6000611fd682611f6b565b611fe08185611f76565b9350611ff0818560208601611f87565b611ff981611fba565b840191505092915050565b6000602082019050818103600083015261201e8184611fcb565b905092915050565b6000819050919050565b61203981612026565b811461204457600080fd5b50565b60008135905061205681612030565b92915050565b60006020828403121561207257612071611ea6565b5b600061208084828501612047565b91505092915050565b600073ffffffffffffffffffffffffffffffffffffffff82169050919050565b60006120b482612089565b9050919050565b6120c4816120a9565b82525050565b60006020820190506120df60008301846120bb565b92915050565b6120ee816120a9565b81146120f957600080fd5b50565b60008135905061210b816120e5565b92915050565b6000806040838503121561212857612127611ea6565b5b6000612136858286016120fc565b925050602061214785828601612047565b9150509250929050565b6000819050919050565b61216481612151565b811461216f57600080fd5b50565b6000813590506121818161215b565b92915050565b60006020828403121561219d5761219c611ea6565b5b60006121ab84828501612172565b91505092915050565b6000806000606084860312156121cd576121cc611ea6565b5b60006121db868287016120fc565b93505060206121ec868287016120fc565b92505060406121fd86828701612047565b9150509250925092565b600080fd5b600080fd5b7f4e487b7100000000000000000000000000000000000000000000000000000000600052604160045260246000fd5b61224982611fba565b810181811067ffffffffffffffff8211171561226857612267612211565b5b80604052505050565b600061227b611e9c565b90506122878282612240565b919050565b600067ffffffffffffffff8211156122a7576122a6612211565b5b6122b082611fba565b9050602081019050919050565b82818337600083830152505050565b60006122df6122da8461228c565b612271565b9050828152602081018484840111156122fb576122fa61220c565b5b6123068482856122bd565b509392505050565b600082601f83011261232357612322612207565b5b81356123338482602086016122cc565b91505092915050565b60006020828403121561235257612351611ea6565b5b600082013567ffffffffffffffff8111156123705761236f611eab565b5b61237c8482850161230e565b91505092915050565b61238e81612026565b82525050565b60006020820190506123a96000830184612385565b92915050565b6000602082840312156123c5576123c4611ea6565b5b60006123d3848285016120fc565b91505092915050565b6000819050919050565b60006124016123fc6123f784612089565b6123dc565b612089565b9050919050565b6000612413826123e6565b9050919050565b600061242582612408565b9050919050565b6124358161241a565b82525050565b6000602082019050612450600083018461242c565b92915050565b61245f81611f35565b811461246a57600080fd5b50565b60008135905061247c81612456565b92915050565b6000806040838503121561249957612498611ea6565b5b60006124a7858286016120fc565b92505060206124b88582860161246d565b9150509250929050565b600067ffffffffffffffff8211156124dd576124dc612211565b5b6124e682611fba565b9050602081019050919050565b6000612506612501846124c2565b612271565b9050828152602081018484840111156125225761252161220c565b5b61252d8482856122bd565b509392505050565b600082601f83011261254a57612549612207565b5b813561255a8482602086016124f3565b91505092915050565b6000806000806080858703121561257d5761257c611ea6565b5b600061258b878288016120fc565b945050602061259c878288016120fc565b93505060406125ad87828801612047565b925050606085013567ffffffffffffffff8111156125ce576125cd611eab565b5b6125da87828801612535565b91505092959194509250565b600080604083850312156125fd576125fc611ea6565b5b600061260b858286016120fc565b925050602061261c858286016120fc565b9150509250929050565b7f4e487b7100000000000000000000000000000000000000000000000000000000600052602260045260246000fd5b6000600282049050600182168061266d57607f821691505b6020821081141561268157612680612626565b5b50919050565b7f4552433732313a20617070726f76656420717565727920666f72206e6f6e657860008201527f697374656e7420746f6b656e0000000000000000000000000000000000000000602082015250565b60006126e3602c83611f76565b91506126ee82612687565b604082019050919050565b60006020820190508181036000830152612712816126d6565b9050919050565b7f4552433732313a20617070726f76616c20746f2063757272656e74206f776e6560008201527f7200000000000000000000000000000000000000000000000000000000000000602082015250565b6000612775602183611f76565b915061278082612719565b604082019050919050565b600060208201905081810360008301526127a481612768565b9050919050565b7f4552433732313a20617070726f76652063616c6c6572206973206e6f74206f7760008201527f6e6572206e6f7220617070726f76656420666f7220616c6c0000000000000000602082015250565b6000612807603883611f76565b9150612812826127ab565b604082019050919050565b60006020820190508181036000830152612836816127fa565b9050919050565b61284681612151565b82525050565b6000602082019050612861600083018461283d565b92915050565b7f4e487b7100000000000000000000000000000000000000000000000000000000600052601160045260246000fd5b60006128a182612026565b91506128ac83612026565b9250827fffffffffffffffffffffffffffffffffffffffffffffffffffffffffffffffff038211156128e1576128e0612867565b5b828201905092915050565b7f4552433732313a207472616e736665722063616c6c6572206973206e6f74206f60008201527f776e6572206e6f7220617070726f766564000000000000000000000000000000602082015250565b6000612948603183611f76565b9150612953826128ec565b604082019050919050565b600060208201905081810360008301526129778161293b565b9050919050565b600081905092915050565b600061299482611f6b565b61299e818561297e565b93506129ae818560208601611f87565b80840191505092915050565b60006129c68284612989565b915081905092915050565b60006129dd8285612989565b91506129e98284612989565b91508190509392505050565b7f4552433732313a206f776e657220717565727920666f72206e6f6e657869737460008201527f656e7420746f6b656e0000000000000000000000000000000000000000000000602082015250565b6000612a51602983611f76565b9150612a5c826129f5565b604082019050919050565b60006020820190508181036000830152612a8081612a44565b9050919050565b7f4552433732313a2062616c616e636520717565727920666f7220746865207a6560008201527f726f206164647265737300000000000000000000000000000000000000000000602082015250565b6000612ae3602a83611f76565b9150612aee82612a87565b604082019050919050565b60006020820190508181036000830152612b1281612ad6565b9050919050565b7f4f776e61626c653a2063616c6c6572206973206e6f7420746865206f776e6572600082015250565b6000612b4f602083611f76565b9150612b5a82612b19565b602082019050919050565b60006020820190508181036000830152612b7e81612b42565b9050919050565b7f4552433732314d657461646174613a2055524920717565727920666f72206e6f60008201527f6e6578697374656e7420746f6b656e0000000000000000000000000000000000602082015250565b6000612be1602f83611f76565b9150612bec82612b85565b604082019050919050565b60006020820190508181036000830152612c1081612bd4565b9050919050565b600069ffffffffffffffffffff82169050919050565b612c3681612c17565b8114612c4157600080fd5b50565b600081519050612c5381612c2d565b92915050565b600081519050612c688161215b565b92915050565b600081519050612c7d81612030565b92915050565b600080600080600060a08688031215612c9f57612c9e611ea6565b5b6000612cad88828901612c44565b9550506020612cbe88828901612c59565b9450506040612ccf88828901612c6e565b9350506060612ce088828901612c6e565b9250506080612cf188828901612c44565b9150509295509295909350565b7f7b226e616d65223a220000000000000000000000000000000000000000000000600082015250565b6000612d3460098361297e565b9150612d3f82612cfe565b600982019050919050565b7f222c20226465736372697074696f6e223a22416e204e4654207468617420636860008201527f616e676573206261736564206f6e2074686520436861696e6c696e6b2046656560208201527f64222c2000000000000000000000000000000000000000000000000000000000604082015250565b6000612dcc60448361297e565b9150612dd782612d4a565b604482019050919050565b7f2261747472696275746573223a205b7b2274726169745f74797065223a20226360008201527f6f6f6c6e657373222c202276616c7565223a203130307d5d2c2022696d61676560208201527f223a220000000000000000000000000000000000000000000000000000000000604082015250565b6000612e6460438361297e565b9150612e6f82612de2565b604382019050919050565b7f227d000000000000000000000000000000000000000000000000000000000000600082015250565b6000612eb060028361297e565b9150612ebb82612e7a565b600282019050919050565b6000612ed182612d27565b9150612edd8285612989565b9150612ee882612dbf565b9150612ef382612e57565b9150612eff8284612989565b9150612f0a82612ea3565b91508190509392505050565b7f4f776e61626c653a206e6577206f776e657220697320746865207a65726f206160008201527f6464726573730000000000000000000000000000000000000000000000000000602082015250565b6000612f72602683611f76565b9150612f7d82612f16565b604082019050919050565b60006020820190508181036000830152612fa181612f65565b9050919050565b7f4e487b7100000000000000000000000000000000000000000000000000000000600052601260045260246000fd5b6000612fe282612026565b9150612fed83612026565b925082612ffd57612ffc612fa8565b5b828204905092915050565b600061301382612026565b915061301e83612026565b9250817fffffffffffffffffffffffffffffffffffffffffffffffffffffffffffffffff048311821515161561305757613056612867565b5b828202905092915050565b7f4552433732313a206f70657261746f7220717565727920666f72206e6f6e657860008201527f697374656e7420746f6b656e0000000000000000000000000000000000000000602082015250565b60006130be602c83611f76565b91506130c982613062565b604082019050919050565b600060208201905081810360008301526130ed816130b1565b9050919050565b7f4552433732313a207472616e736665722066726f6d20696e636f72726563742060008201527f6f776e6572000000000000000000000000000000000000000000000000000000602082015250565b6000613150602583611f76565b915061315b826130f4565b604082019050919050565b6000602082019050818103600083015261317f81613143565b9050919050565b7f4552433732313a207472616e7366657220746f20746865207a65726f2061646460008201527f7265737300000000000000000000000000000000000000000000000000000000602082015250565b60006131e2602483611f76565b91506131ed82613186565b604082019050919050565b60006020820190508181036000830152613211816131d5565b9050919050565b600061322382612026565b915061322e83612026565b92508282101561324157613240612867565b5b828203905092915050565b7f4552433732313a20617070726f766520746f2063616c6c657200000000000000600082015250565b6000613282601983611f76565b915061328d8261324c565b602082019050919050565b600060208201905081810360008301526132b181613275565b9050919050565b7f4552433732313a207472616e7366657220746f206e6f6e20455243373231526560008201527f63656976657220696d706c656d656e7465720000000000000000000000000000602082015250565b6000613314603283611f76565b915061331f826132b8565b604082019050919050565b6000602082019050818103600083015261334381613307565b9050919050565b600081519050919050565b600082825260208201905092915050565b60006133718261334a565b61337b8185613355565b935061338b818560208601611f87565b61339481611fba565b840191505092915050565b60006080820190506133b460008301876120bb565b6133c160208301866120bb565b6133ce6040830185612385565b81810360608301526133e08184613366565b905095945050505050565b6000815190506133fa81611edc565b92915050565b60006020828403121561341657613415611ea6565b5b6000613424848285016133eb565b91505092915050565b7f4552433732313a206d696e7420746f20746865207a65726f2061646472657373600082015250565b6000613463602083611f76565b915061346e8261342d565b602082019050919050565b6000602082019050818103600083015261349281613456565b9050919050565b7f4552433732313a20746f6b656e20616c7265616479206d696e74656400000000600082015250565b60006134cf601c83611f76565b91506134da82613499565b602082019050919050565b600060208201905081810360008301526134fe816134c2565b905091905056fe4142434445464748494a4b4c4d4e4f505152535455565758595a6162636465666768696a6b6c6d6e6f707172737475767778797a303132333435363738392b2fa2646970667358221220ca19b27bd02ee90d8d16a565a189604b9d9c57584252dc703f5daba7272a9d1e64736f6c634300080800334142434445464748494a4b4c4d4e4f505152535455565758595a6162636465666768696a6b6c6d6e6f707172737475767778797a303132333435363738392b2f",
  "linkReferences": {},
  "deployedLinkReferences": {}
}