{
  "_format": "hh-sol-artifact-1",
  "contractName": "RandomIpfsNft",
  "sourceName": "contracts/RandomIpfsNft.sol",
  "abi": [
    {
      "inputs": [
        {
          "internalType": "address",
          "name": "vrfCoordinatorV2",
          "type": "address"
        },
        {
          "internalType": "uint64",
          "name": "subscriptionId",
          "type": "uint64"
        },
        {
          "internalType": "bytes32",
          "name": "gasLane",
          "type": "bytes32"
        },
        {
          "internalType": "uint32",
          "name": "callbackGasLimit",
          "type": "uint32"
        },
        {
          "internalType": "string[3]",
          "name": "dogTokenUris",
          "type": "string[3]"
        },
        {
          "internalType": "uint256",
          "name": "mintFee",
          "type": "uint256"
        }
      ],
      "stateMutability": "nonpayable",
      "type": "constructor"
    },
    {
      "inputs": [
        {
          "internalType": "address",
          "name": "have",
          "type": "address"
        },
        {
          "internalType": "address",
          "name": "want",
          "type": "address"
        }
      ],
      "name": "OnlyCoordinatorCanFulfill",
      "type": "error"
    },
    {
      "inputs": [],
      "name": "RandomIpfsNft_NeedMoreETHSent",
      "type": "error"
    },
    {
      "inputs": [],
      "name": "RandomIpfsNft_RangeOutOgBounds",
      "type": "error"
    },
    {
      "inputs": [],
      "name": "RandomIpfsNft_TransferFailed",
      "type": "error"
    },
    {
      "anonymous": false,
      "inputs": [
        {
          "indexed": true,
          "internalType": "address",
          "name": "owner",
          "type": "address"
        },
        {
          "indexed": true,
          "internalType": "address",
          "name": "approved",
          "type": "address"
        },
        {
          "indexed": true,
          "internalType": "uint256",
          "name": "tokenId",
          "type": "uint256"
        }
      ],
      "name": "Approval",
      "type": "event"
    },
    {
      "anonymous": false,
      "inputs": [
        {
          "indexed": true,
          "internalType": "address",
          "name": "owner",
          "type": "address"
        },
        {
          "indexed": true,
          "internalType": "address",
          "name": "operator",
          "type": "address"
        },
        {
          "indexed": false,
          "internalType": "bool",
          "name": "approved",
          "type": "bool"
        }
      ],
      "name": "ApprovalForAll",
      "type": "event"
    },
    {
      "anonymous": false,
      "inputs": [
        {
          "indexed": false,
          "internalType": "enum RandomIpfsNft.Breed",
          "name": "dogBreed",
          "type": "uint8"
        },
        {
          "indexed": false,
          "internalType": "address",
          "name": "minter",
          "type": "address"
        }
      ],
      "name": "NftMinted",
      "type": "event"
    },
    {
      "anonymous": false,
      "inputs": [
        {
          "indexed": true,
          "internalType": "uint256",
          "name": "requestId",
          "type": "uint256"
        },
        {
          "indexed": false,
          "internalType": "address",
          "name": "requester",
          "type": "address"
        }
      ],
      "name": "NftRequested",
      "type": "event"
    },
    {
      "anonymous": false,
      "inputs": [
        {
          "indexed": true,
          "internalType": "address",
          "name": "previousOwner",
          "type": "address"
        },
        {
          "indexed": true,
          "internalType": "address",
          "name": "newOwner",
          "type": "address"
        }
      ],
      "name": "OwnershipTransferred",
      "type": "event"
    },
    {
      "anonymous": false,
      "inputs": [
        {
          "indexed": true,
          "internalType": "address",
          "name": "from",
          "type": "address"
        },
        {
          "indexed": true,
          "internalType": "address",
          "name": "to",
          "type": "address"
        },
        {
          "indexed": true,
          "internalType": "uint256",
          "name": "tokenId",
          "type": "uint256"
        }
      ],
      "name": "Transfer",
      "type": "event"
    },
    {
      "inputs": [
        {
          "internalType": "address",
          "name": "to",
          "type": "address"
        },
        {
          "internalType": "uint256",
          "name": "tokenId",
          "type": "uint256"
        }
      ],
      "name": "approve",
      "outputs": [],
      "stateMutability": "nonpayable",
      "type": "function"
    },
    {
      "inputs": [
        {
          "internalType": "address",
          "name": "owner",
          "type": "address"
        }
      ],
      "name": "balanceOf",
      "outputs": [
        {
          "internalType": "uint256",
          "name": "",
          "type": "uint256"
        }
      ],
      "stateMutability": "view",
      "type": "function"
    },
    {
      "inputs": [
        {
          "internalType": "uint256",
          "name": "tokenId",
          "type": "uint256"
        }
      ],
      "name": "getApproved",
      "outputs": [
        {
          "internalType": "address",
          "name": "",
          "type": "address"
        }
      ],
      "stateMutability": "view",
      "type": "function"
    },
    {
      "inputs": [
        {
          "internalType": "uint256",
          "name": "moddedRng",
          "type": "uint256"
        }
      ],
      "name": "getBreedFromModdedRng",
      "outputs": [
        {
          "internalType": "enum RandomIpfsNft.Breed",
          "name": "",
          "type": "uint8"
        }
      ],
      "stateMutability": "pure",
      "type": "function"
    },
    {
      "inputs": [],
      "name": "getChanceArray",
      "outputs": [
        {
          "internalType": "uint256[3]",
          "name": "",
          "type": "uint256[3]"
        }
      ],
      "stateMutability": "pure",
      "type": "function"
    },
    {
      "inputs": [
        {
          "internalType": "uint256",
          "name": "index",
          "type": "uint256"
        }
      ],
      "name": "getDogTokenUris",
      "outputs": [
        {
          "internalType": "string",
          "name": "",
          "type": "string"
        }
      ],
      "stateMutability": "view",
      "type": "function"
    },
    {
      "inputs": [],
      "name": "getMintFee",
      "outputs": [
        {
          "internalType": "uint256",
          "name": "",
          "type": "uint256"
        }
      ],
      "stateMutability": "view",
      "type": "function"
    },
    {
      "inputs": [],
      "name": "getTokenCounter",
      "outputs": [
        {
          "internalType": "uint256",
          "name": "",
          "type": "uint256"
        }
      ],
      "stateMutability": "view",
      "type": "function"
    },
    {
      "inputs": [
        {
          "internalType": "address",
          "name": "owner",
          "type": "address"
        },
        {
          "internalType": "address",
          "name": "operator",
          "type": "address"
        }
      ],
      "name": "isApprovedForAll",
      "outputs": [
        {
          "internalType": "bool",
          "name": "",
          "type": "bool"
        }
      ],
      "stateMutability": "view",
      "type": "function"
    },
    {
      "inputs": [],
      "name": "name",
      "outputs": [
        {
          "internalType": "string",
          "name": "",
          "type": "string"
        }
      ],
      "stateMutability": "view",
      "type": "function"
    },
    {
      "inputs": [],
      "name": "owner",
      "outputs": [
        {
          "internalType": "address",
          "name": "",
          "type": "address"
        }
      ],
      "stateMutability": "view",
      "type": "function"
    },
    {
      "inputs": [
        {
          "internalType": "uint256",
          "name": "tokenId",
          "type": "uint256"
        }
      ],
      "name": "ownerOf",
      "outputs": [
        {
          "internalType": "address",
          "name": "",
          "type": "address"
        }
      ],
      "stateMutability": "view",
      "type": "function"
    },
    {
      "inputs": [
        {
          "internalType": "uint256",
          "name": "requestId",
          "type": "uint256"
        },
        {
          "internalType": "uint256[]",
          "name": "randomWords",
          "type": "uint256[]"
        }
      ],
      "name": "rawFulfillRandomWords",
      "outputs": [],
      "stateMutability": "nonpayable",
      "type": "function"
    },
    {
      "inputs": [],
      "name": "renounceOwnership",
      "outputs": [],
      "stateMutability": "nonpayable",
      "type": "function"
    },
    {
      "inputs": [
        {
          "internalType": "uint256",
          "name": "requestId",
          "type": "uint256"
        }
      ],
      "name": "requestNft",
      "outputs": [
        {
          "internalType": "uint256",
          "name": "",
          "type": "uint256"
        }
      ],
      "stateMutability": "payable",
      "type": "function"
    },
    {
      "inputs": [
        {
          "internalType": "address",
          "name": "from",
          "type": "address"
        },
        {
          "internalType": "address",
          "name": "to",
          "type": "address"
        },
        {
          "internalType": "uint256",
          "name": "tokenId",
          "type": "uint256"
        }
      ],
      "name": "safeTransferFrom",
      "outputs": [],
      "stateMutability": "nonpayable",
      "type": "function"
    },
    {
      "inputs": [
        {
          "internalType": "address",
          "name": "from",
          "type": "address"
        },
        {
          "internalType": "address",
          "name": "to",
          "type": "address"
        },
        {
          "internalType": "uint256",
          "name": "tokenId",
          "type": "uint256"
        },
        {
          "internalType": "bytes",
          "name": "_data",
          "type": "bytes"
        }
      ],
      "name": "safeTransferFrom",
      "outputs": [],
      "stateMutability": "nonpayable",
      "type": "function"
    },
    {
      "inputs": [
        {
          "internalType": "address",
          "name": "operator",
          "type": "address"
        },
        {
          "internalType": "bool",
          "name": "approved",
          "type": "bool"
        }
      ],
      "name": "setApprovalForAll",
      "outputs": [],
      "stateMutability": "nonpayable",
      "type": "function"
    },
    {
      "inputs": [
        {
          "internalType": "bytes4",
          "name": "interfaceId",
          "type": "bytes4"
        }
      ],
      "name": "supportsInterface",
      "outputs": [
        {
          "internalType": "bool",
          "name": "",
          "type": "bool"
        }
      ],
      "stateMutability": "view",
      "type": "function"
    },
    {
      "inputs": [],
      "name": "symbol",
      "outputs": [
        {
          "internalType": "string",
          "name": "",
          "type": "string"
        }
      ],
      "stateMutability": "view",
      "type": "function"
    },
    {
      "inputs": [
        {
          "internalType": "uint256",
          "name": "tokenId",
          "type": "uint256"
        }
      ],
      "name": "tokenURI",
      "outputs": [
        {
          "internalType": "string",
          "name": "",
          "type": "string"
        }
      ],
      "stateMutability": "view",
      "type": "function"
    },
    {
      "inputs": [
        {
          "internalType": "address",
          "name": "from",
          "type": "address"
        },
        {
          "internalType": "address",
          "name": "to",
          "type": "address"
        },
        {
          "internalType": "uint256",
          "name": "tokenId",
          "type": "uint256"
        }
      ],
      "name": "transferFrom",
      "outputs": [],
      "stateMutability": "nonpayable",
      "type": "function"
    },
    {
      "inputs": [
        {
          "internalType": "address",
          "name": "newOwner",
          "type": "address"
        }
      ],
      "name": "transferOwnership",
      "outputs": [],
      "stateMutability": "nonpayable",
      "type": "function"
    },
    {
      "inputs": [],
      "name": "withdraw",
      "outputs": [],
      "stateMutability": "nonpayable",
      "type": "function"
    }
  ],
  "bytecode": "0x6101206040523480156200001257600080fd5b50604051620045f5380380620045f5833981810160405281019062000038919062000809565b6040518060400160405280600f81526020017f52616e646f6d2049504653204e465400000000000000000000000000000000008152506040518060400160405280600381526020017f52494e0000000000000000000000000000000000000000000000000000000000815250878073ffffffffffffffffffffffffffffffffffffffff1660808173ffffffffffffffffffffffffffffffffffffffff1660601b81525050508160009080519060200190620000f59291906200029c565b5080600190805190602001906200010e9291906200029c565b5050506200013162000125620001ce60201b60201c565b620001d660201b60201c565b8573ffffffffffffffffffffffffffffffffffffffff1660a08173ffffffffffffffffffffffffffffffffffffffff1660601b815250508467ffffffffffffffff1660c08167ffffffffffffffff1660c01b815250508360e081815250508263ffffffff166101008163ffffffff1660e01b8152505081600a906003620001ba9291906200032d565b5080600b8190555050505050505062000929565b600033905090565b6000600760009054906101000a900473ffffffffffffffffffffffffffffffffffffffff16905081600760006101000a81548173ffffffffffffffffffffffffffffffffffffffff021916908373ffffffffffffffffffffffffffffffffffffffff1602179055508173ffffffffffffffffffffffffffffffffffffffff168173ffffffffffffffffffffffffffffffffffffffff167f8be0079c531659141344cd1fd0a4f28419497f9722a3daafe3b4186f6b6457e060405160405180910390a35050565b828054620002aa90620008f3565b90600052602060002090601f016020900481019282620002ce57600085556200031a565b82601f10620002e957805160ff19168380011785556200031a565b828001600101855582156200031a579182015b8281111562000319578251825591602001919060010190620002fc565b5b50905062000329919062000394565b5090565b82805482825590600052602060002090810192821562000381579160200282015b82811115620003805782518290805190602001906200036f9291906200029c565b50916020019190600101906200034e565b5b509050620003909190620003b3565b5090565b5b80821115620003af57600081600090555060010162000395565b5090565b5b80821115620003d75760008181620003cd9190620003db565b50600101620003b4565b5090565b508054620003e990620008f3565b6000825580601f10620003fd57506200041e565b601f0160209004906000526020600020908101906200041d919062000394565b5b50565b6000604051905090565b600080fd5b600080fd5b600073ffffffffffffffffffffffffffffffffffffffff82169050919050565b6000620004628262000435565b9050919050565b620004748162000455565b81146200048057600080fd5b50565b600081519050620004948162000469565b92915050565b600067ffffffffffffffff82169050919050565b620004b9816200049a565b8114620004c557600080fd5b50565b600081519050620004d981620004ae565b92915050565b6000819050919050565b620004f481620004df565b81146200050057600080fd5b50565b6000815190506200051481620004e9565b92915050565b600063ffffffff82169050919050565b62000535816200051a565b81146200054157600080fd5b50565b60008151905062000555816200052a565b92915050565b600080fd5b6000601f19601f8301169050919050565b7f4e487b7100000000000000000000000000000000000000000000000000000000600052604160045260246000fd5b620005ab8262000560565b810181811067ffffffffffffffff82111715620005cd57620005cc62000571565b5b80604052505050565b6000620005e262000421565b9050620005f08282620005a0565b919050565b600067ffffffffffffffff82111562000613576200061262000571565b5b602082029050919050565b600080fd5b600080fd5b600067ffffffffffffffff82111562000646576200064562000571565b5b620006518262000560565b9050602081019050919050565b60005b838110156200067e57808201518184015260208101905062000661565b838111156200068e576000848401525b50505050565b6000620006ab620006a58462000628565b620005d6565b905082815260208101848484011115620006ca57620006c962000623565b5b620006d78482856200065e565b509392505050565b600082601f830112620006f757620006f66200055b565b5b81516200070984826020860162000694565b91505092915050565b6000620007296200072384620005f5565b620005d6565b905080602084028301858111156200074657620007456200061e565b5b835b818110156200079457805167ffffffffffffffff8111156200076f576200076e6200055b565b5b8086016200077e8982620006df565b8552602085019450505060208101905062000748565b5050509392505050565b600082601f830112620007b657620007b56200055b565b5b6003620007c584828562000712565b91505092915050565b6000819050919050565b620007e381620007ce565b8114620007ef57600080fd5b50565b6000815190506200080381620007d8565b92915050565b60008060008060008060c087890312156200082957620008286200042b565b5b60006200083989828a0162000483565b96505060206200084c89828a01620004c8565b95505060406200085f89828a0162000503565b94505060606200087289828a0162000544565b935050608087015167ffffffffffffffff81111562000896576200089562000430565b5b620008a489828a016200079e565b92505060a0620008b789828a01620007f2565b9150509295509295509295565b7f4e487b7100000000000000000000000000000000000000000000000000000000600052602260045260246000fd5b600060028204905060018216806200090c57607f821691505b60208210811415620009235762000922620008c4565b5b50919050565b60805160601c60a05160601c60c05160c01c60e0516101005160e01c613c74620009816000396000611239015260006111f501526000611216015260006111b90152600081816108ca015261091e0152613c746000f3fe60806040526004361061014b5760003560e01c806370a08231116100b6578063a51cccf31161006f578063a51cccf31461047e578063b88d4fde146104bb578063c87b56dd146104e4578063e71d201114610521578063e985e9c514610551578063f2fde38b1461058e5761014b565b806370a0823114610380578063715018a6146103bd5780637a5caab3146103d45780638da5cb5b146103ff57806395d89b411461042a578063a22cb465146104555761014b565b80633af25975116101085780633af25975146102705780633ccfd60b146102ad57806342842e0e146102c45780635dacf5f4146102ed5780636352211e146103185780636e02007d146103555761014b565b806301ffc9a71461015057806306fdde031461018d578063081812fc146101b8578063095ea7b3146101f55780631fe543e31461021e57806323b872dd14610247575b600080fd5b34801561015c57600080fd5b50610177600480360381019061017291906125b4565b6105b7565b60405161018491906125fc565b60405180910390f35b34801561019957600080fd5b506101a2610699565b6040516101af91906126b0565b60405180910390f35b3480156101c457600080fd5b506101df60048036038101906101da9190612708565b61072b565b6040516101ec9190612776565b60405180910390f35b34801561020157600080fd5b5061021c600480360381019061021791906127bd565b6107b0565b005b34801561022a57600080fd5b5061024560048036038101906102409190612945565b6108c8565b005b34801561025357600080fd5b5061026e600480360381019061026991906129a1565b610988565b005b34801561027c57600080fd5b5061029760048036038101906102929190612708565b6109e8565b6040516102a491906126b0565b60405180910390f35b3480156102b957600080fd5b506102c2610a98565b005b3480156102d057600080fd5b506102eb60048036038101906102e691906129a1565b610bc0565b005b3480156102f957600080fd5b50610302610be0565b60405161030f9190612a9f565b60405180910390f35b34801561032457600080fd5b5061033f600480360381019061033a9190612708565b610c0b565b60405161034c9190612776565b60405180910390f35b34801561036157600080fd5b5061036a610cbd565b6040516103779190612ac9565b60405180910390f35b34801561038c57600080fd5b506103a760048036038101906103a29190612ae4565b610cc7565b6040516103b49190612ac9565b60405180910390f35b3480156103c957600080fd5b506103d2610d7f565b005b3480156103e057600080fd5b506103e9610e07565b6040516103f69190612ac9565b60405180910390f35b34801561040b57600080fd5b50610414610e11565b6040516104219190612776565b60405180910390f35b34801561043657600080fd5b5061043f610e3b565b60405161044c91906126b0565b60405180910390f35b34801561046157600080fd5b5061047c60048036038101906104779190612b3d565b610ecd565b005b34801561048a57600080fd5b506104a560048036038101906104a09190612708565b610ee3565b6040516104b29190612bf4565b60405180910390f35b3480156104c757600080fd5b506104e260048036038101906104dd9190612cc4565b610fc5565b005b3480156104f057600080fd5b5061050b60048036038101906105069190612708565b611027565b60405161051891906126b0565b60405180910390f35b61053b60048036038101906105369190612708565b611179565b6040516105489190612ac9565b60405180910390f35b34801561055d57600080fd5b5061057860048036038101906105739190612d47565b61135d565b60405161058591906125fc565b60405180910390f35b34801561059a57600080fd5b506105b560048036038101906105b09190612ae4565b6113f1565b005b60007f80ac58cd000000000000000000000000000000000000000000000000000000007bffffffffffffffffffffffffffffffffffffffffffffffffffffffff1916827bffffffffffffffffffffffffffffffffffffffffffffffffffffffff1916148061068257507f5b5e139f000000000000000000000000000000000000000000000000000000007bffffffffffffffffffffffffffffffffffffffffffffffffffffffff1916827bffffffffffffffffffffffffffffffffffffffffffffffffffffffff1916145b806106925750610691826114e9565b5b9050919050565b6060600080546106a890612db6565b80601f01602080910402602001604051908101604052809291908181526020018280546106d490612db6565b80156107215780601f106106f657610100808354040283529160200191610721565b820191906000526020600020905b81548152906001019060200180831161070457829003601f168201915b5050505050905090565b600061073682611553565b610775576040517f08c379a000000000000000000000000000000000000000000000000000000000815260040161076c90612e5a565b60405180910390fd5b6004600083815260200190815260200160002060009054906101000a900473ffffffffffffffffffffffffffffffffffffffff169050919050565b60006107bb82610c0b565b90508073ffffffffffffffffffffffffffffffffffffffff168373ffffffffffffffffffffffffffffffffffffffff16141561082c576040517f08c379a000000000000000000000000000000000000000000000000000000000815260040161082390612eec565b60405180910390fd5b8073ffffffffffffffffffffffffffffffffffffffff1661084b6115bf565b73ffffffffffffffffffffffffffffffffffffffff16148061087a5750610879816108746115bf565b61135d565b5b6108b9576040517f08c379a00000000000000000000000000000000000000000000000000000000081526004016108b090612f7e565b60405180910390fd5b6108c383836115c7565b505050565b7f000000000000000000000000000000000000000000000000000000000000000073ffffffffffffffffffffffffffffffffffffffff163373ffffffffffffffffffffffffffffffffffffffff161461097a57337f00000000000000000000000000000000000000000000000000000000000000006040517f1cf993f4000000000000000000000000000000000000000000000000000000008152600401610971929190612f9e565b60405180910390fd5b6109848282611680565b5050565b6109996109936115bf565b82611805565b6109d8576040517f08c379a00000000000000000000000000000000000000000000000000000000081526004016109cf90613039565b60405180910390fd5b6109e38383836118e3565b505050565b6060600a82815481106109fe576109fd613059565b5b906000526020600020018054610a1390612db6565b80601f0160208091040260200160405190810160405280929190818152602001828054610a3f90612db6565b8015610a8c5780601f10610a6157610100808354040283529160200191610a8c565b820191906000526020600020905b815481529060010190602001808311610a6f57829003601f168201915b50505050509050919050565b610aa06115bf565b73ffffffffffffffffffffffffffffffffffffffff16610abe610e11565b73ffffffffffffffffffffffffffffffffffffffff1614610b14576040517f08c379a0000000000000000000000000000000000000000000000000000000008152600401610b0b906130d4565b60405180910390fd5b600047905060003373ffffffffffffffffffffffffffffffffffffffff1682604051610b3f90613125565b60006040518083038185875af1925050503d8060008114610b7c576040519150601f19603f3d011682016040523d82523d6000602084013e610b81565b606091505b5050905080610bbc576040517f5586f5d000000000000000000000000000000000000000000000000000000000815260040160405180910390fd5b5050565b610bdb83838360405180602001604052806000815250610fc5565b505050565b610be8612483565b6040518060600160405280600a8152602001601e81526020016064815250905090565b6000806002600084815260200190815260200160002060009054906101000a900473ffffffffffffffffffffffffffffffffffffffff169050600073ffffffffffffffffffffffffffffffffffffffff168173ffffffffffffffffffffffffffffffffffffffff161415610cb4576040517f08c379a0000000000000000000000000000000000000000000000000000000008152600401610cab906131ac565b60405180910390fd5b80915050919050565b6000600954905090565b60008073ffffffffffffffffffffffffffffffffffffffff168273ffffffffffffffffffffffffffffffffffffffff161415610d38576040517f08c379a0000000000000000000000000000000000000000000000000000000008152600401610d2f9061323e565b60405180910390fd5b600360008373ffffffffffffffffffffffffffffffffffffffff1673ffffffffffffffffffffffffffffffffffffffff168152602001908152602001600020549050919050565b610d876115bf565b73ffffffffffffffffffffffffffffffffffffffff16610da5610e11565b73ffffffffffffffffffffffffffffffffffffffff1614610dfb576040517f08c379a0000000000000000000000000000000000000000000000000000000008152600401610df2906130d4565b60405180910390fd5b610e056000611b4a565b565b6000600b54905090565b6000600760009054906101000a900473ffffffffffffffffffffffffffffffffffffffff16905090565b606060018054610e4a90612db6565b80601f0160208091040260200160405190810160405280929190818152602001828054610e7690612db6565b8015610ec35780601f10610e9857610100808354040283529160200191610ec3565b820191906000526020600020905b815481529060010190602001808311610ea657829003601f168201915b5050505050905090565b610edf610ed86115bf565b8383611c10565b5050565b600080600090506000610ef4610be0565b905060005b6003811015610f8d57828510158015610f335750818160038110610f2057610f1f613059565b5b602002015183610f30919061328d565b85105b15610f5557806002811115610f4b57610f4a612b7d565b5b9350505050610fc0565b818160038110610f6857610f67613059565b5b602002015183610f78919061328d565b92508080610f85906132e3565b915050610ef9565b506040517f6ddecf7100000000000000000000000000000000000000000000000000000000815260040160405180910390fd5b919050565b610fd6610fd06115bf565b83611805565b611015576040517f08c379a000000000000000000000000000000000000000000000000000000000815260040161100c90613039565b60405180910390fd5b61102184848484611d7d565b50505050565b606061103282611553565b611071576040517f08c379a00000000000000000000000000000000000000000000000000000000081526004016110689061339e565b60405180910390fd5b600060066000848152602001908152602001600020805461109190612db6565b80601f01602080910402602001604051908101604052809291908181526020018280546110bd90612db6565b801561110a5780601f106110df5761010080835404028352916020019161110a565b820191906000526020600020905b8154815290600101906020018083116110ed57829003601f168201915b50505050509050600061111b611dd9565b9050600081511415611131578192505050611174565b60008251111561116657808260405160200161114e9291906133fa565b60405160208183030381529060405292505050611174565b61116f84611df0565b925050505b919050565b6000600b543410156111b7576040517feb7246a800000000000000000000000000000000000000000000000000000000815260040160405180910390fd5b7f000000000000000000000000000000000000000000000000000000000000000073ffffffffffffffffffffffffffffffffffffffff16635d3b1d307f00000000000000000000000000000000000000000000000000000000000000007f000000000000000000000000000000000000000000000000000000000000000060037f000000000000000000000000000000000000000000000000000000000000000060016040518663ffffffff1660e01b815260040161127a959493929190613496565b602060405180830381600087803b15801561129457600080fd5b505af11580156112a8573d6000803e3d6000fd5b505050506040513d601f19601f820116820180604052508101906112cc91906134fe565b9150336008600084815260200190815260200160002060006101000a81548173ffffffffffffffffffffffffffffffffffffffff021916908373ffffffffffffffffffffffffffffffffffffffff160217905550817ff873236e6cc0ecc5be1a9a35c95ee5b8d1ac4cc7bfef0cc5060391d6cc98e26b336040516113509190612776565b60405180910390a2919050565b6000600560008473ffffffffffffffffffffffffffffffffffffffff1673ffffffffffffffffffffffffffffffffffffffff16815260200190815260200160002060008373ffffffffffffffffffffffffffffffffffffffff1673ffffffffffffffffffffffffffffffffffffffff16815260200190815260200160002060009054906101000a900460ff16905092915050565b6113f96115bf565b73ffffffffffffffffffffffffffffffffffffffff16611417610e11565b73ffffffffffffffffffffffffffffffffffffffff161461146d576040517f08c379a0000000000000000000000000000000000000000000000000000000008152600401611464906130d4565b60405180910390fd5b600073ffffffffffffffffffffffffffffffffffffffff168173ffffffffffffffffffffffffffffffffffffffff1614156114dd576040517f08c379a00000000000000000000000000000000000000000000000000000000081526004016114d49061359d565b60405180910390fd5b6114e681611b4a565b50565b60007f01ffc9a7000000000000000000000000000000000000000000000000000000007bffffffffffffffffffffffffffffffffffffffffffffffffffffffff1916827bffffffffffffffffffffffffffffffffffffffffffffffffffffffff1916149050919050565b60008073ffffffffffffffffffffffffffffffffffffffff166002600084815260200190815260200160002060009054906101000a900473ffffffffffffffffffffffffffffffffffffffff1673ffffffffffffffffffffffffffffffffffffffff1614159050919050565b600033905090565b816004600083815260200190815260200160002060006101000a81548173ffffffffffffffffffffffffffffffffffffffff021916908373ffffffffffffffffffffffffffffffffffffffff160217905550808273ffffffffffffffffffffffffffffffffffffffff1661163a83610c0b565b73ffffffffffffffffffffffffffffffffffffffff167f8c5be1e5ebec7d5bd14f71427d1e84f3dd0314c0f7b2291e5b200ac8c7c3b92560405160405180910390a45050565b60006008600084815260200190815260200160002060009054906101000a900473ffffffffffffffffffffffffffffffffffffffff1690506000600954905060006064846000815181106116d7576116d6613059565b5b60200260200101516116e991906135ec565b905060006116f682610ee3565b90506117028484611e97565b6117c483600a83600281111561171b5761171a612b7d565b5b8154811061172c5761172b613059565b5b90600052602060002001805461174190612db6565b80601f016020809104026020016040519081016040528092919081815260200182805461176d90612db6565b80156117ba5780601f1061178f576101008083540402835291602001916117ba565b820191906000526020600020905b81548152906001019060200180831161179d57829003601f168201915b5050505050611eb5565b7f8a269f26b688e110e9cbd887d163dab35cae678fa353a0292de532c0cac1ecdc81856040516117f592919061361d565b60405180910390a1505050505050565b600061181082611553565b61184f576040517f08c379a0000000000000000000000000000000000000000000000000000000008152600401611846906136b8565b60405180910390fd5b600061185a83610c0b565b90508073ffffffffffffffffffffffffffffffffffffffff168473ffffffffffffffffffffffffffffffffffffffff16148061189c575061189b818561135d565b5b806118da57508373ffffffffffffffffffffffffffffffffffffffff166118c28461072b565b73ffffffffffffffffffffffffffffffffffffffff16145b91505092915050565b8273ffffffffffffffffffffffffffffffffffffffff1661190382610c0b565b73ffffffffffffffffffffffffffffffffffffffff1614611959576040517f08c379a00000000000000000000000000000000000000000000000000000000081526004016119509061374a565b60405180910390fd5b600073ffffffffffffffffffffffffffffffffffffffff168273ffffffffffffffffffffffffffffffffffffffff1614156119c9576040517f08c379a00000000000000000000000000000000000000000000000000000000081526004016119c0906137dc565b60405180910390fd5b6119d4838383611f29565b6119df6000826115c7565b6001600360008573ffffffffffffffffffffffffffffffffffffffff1673ffffffffffffffffffffffffffffffffffffffff1681526020019081526020016000206000828254611a2f91906137fc565b925050819055506001600360008473ffffffffffffffffffffffffffffffffffffffff1673ffffffffffffffffffffffffffffffffffffffff1681526020019081526020016000206000828254611a86919061328d565b92505081905550816002600083815260200190815260200160002060006101000a81548173ffffffffffffffffffffffffffffffffffffffff021916908373ffffffffffffffffffffffffffffffffffffffff160217905550808273ffffffffffffffffffffffffffffffffffffffff168473ffffffffffffffffffffffffffffffffffffffff167fddf252ad1be2c89b69c2b068fc378daa952ba7f163c4a11628f55a4df523b3ef60405160405180910390a4611b45838383611f2e565b505050565b6000600760009054906101000a900473ffffffffffffffffffffffffffffffffffffffff16905081600760006101000a81548173ffffffffffffffffffffffffffffffffffffffff021916908373ffffffffffffffffffffffffffffffffffffffff1602179055508173ffffffffffffffffffffffffffffffffffffffff168173ffffffffffffffffffffffffffffffffffffffff167f8be0079c531659141344cd1fd0a4f28419497f9722a3daafe3b4186f6b6457e060405160405180910390a35050565b8173ffffffffffffffffffffffffffffffffffffffff168373ffffffffffffffffffffffffffffffffffffffff161415611c7f576040517f08c379a0000000000000000000000000000000000000000000000000000000008152600401611c769061387c565b60405180910390fd5b80600560008573ffffffffffffffffffffffffffffffffffffffff1673ffffffffffffffffffffffffffffffffffffffff16815260200190815260200160002060008473ffffffffffffffffffffffffffffffffffffffff1673ffffffffffffffffffffffffffffffffffffffff16815260200190815260200160002060006101000a81548160ff0219169083151502179055508173ffffffffffffffffffffffffffffffffffffffff168373ffffffffffffffffffffffffffffffffffffffff167f17307eab39ab6107e8899845ad3d59bd9653f200f220920489ca2b5937696c3183604051611d7091906125fc565b60405180910390a3505050565b611d888484846118e3565b611d9484848484611f33565b611dd3576040517f08c379a0000000000000000000000000000000000000000000000000000000008152600401611dca9061390e565b60405180910390fd5b50505050565b606060405180602001604052806000815250905090565b6060611dfb82611553565b611e3a576040517f08c379a0000000000000000000000000000000000000000000000000000000008152600401611e31906139a0565b60405180910390fd5b6000611e44611dd9565b90506000815111611e645760405180602001604052806000815250611e8f565b80611e6e846120ca565b604051602001611e7f9291906133fa565b6040516020818303038152906040525b915050919050565b611eb182826040518060200160405280600081525061222b565b5050565b611ebe82611553565b611efd576040517f08c379a0000000000000000000000000000000000000000000000000000000008152600401611ef490613a32565b60405180910390fd5b80600660008481526020019081526020016000209080519060200190611f249291906124a5565b505050565b505050565b505050565b6000611f548473ffffffffffffffffffffffffffffffffffffffff16612286565b156120bd578373ffffffffffffffffffffffffffffffffffffffff1663150b7a02611f7d6115bf565b8786866040518563ffffffff1660e01b8152600401611f9f9493929190613aa7565b602060405180830381600087803b158015611fb957600080fd5b505af1925050508015611fea57506040513d601f19601f82011682018060405250810190611fe79190613b08565b60015b61206d573d806000811461201a576040519150601f19603f3d011682016040523d82523d6000602084013e61201f565b606091505b50600081511415612065576040517f08c379a000000000000000000000000000000000000000000000000000000000815260040161205c9061390e565b60405180910390fd5b805181602001fd5b63150b7a0260e01b7bffffffffffffffffffffffffffffffffffffffffffffffffffffffff1916817bffffffffffffffffffffffffffffffffffffffffffffffffffffffff1916149150506120c2565b600190505b949350505050565b60606000821415612112576040518060400160405280600181526020017f30000000000000000000000000000000000000000000000000000000000000008152509050612226565b600082905060005b6000821461214457808061212d906132e3565b915050600a8261213d9190613b35565b915061211a565b60008167ffffffffffffffff8111156121605761215f612802565b5b6040519080825280601f01601f1916602001820160405280156121925781602001600182028036833780820191505090505b5090505b6000851461221f576001826121ab91906137fc565b9150600a856121ba91906135ec565b60306121c6919061328d565b60f81b8183815181106121dc576121db613059565b5b60200101907effffffffffffffffffffffffffffffffffffffffffffffffffffffffffffff1916908160001a905350600a856122189190613b35565b9450612196565b8093505050505b919050565b61223583836122a9565b6122426000848484611f33565b612281576040517f08c379a00000000000000000000000000000000000000000000000000000000081526004016122789061390e565b60405180910390fd5b505050565b6000808273ffffffffffffffffffffffffffffffffffffffff163b119050919050565b600073ffffffffffffffffffffffffffffffffffffffff168273ffffffffffffffffffffffffffffffffffffffff161415612319576040517f08c379a000000000000000000000000000000000000000000000000000000000815260040161231090613bb2565b60405180910390fd5b61232281611553565b15612362576040517f08c379a000000000000000000000000000000000000000000000000000000000815260040161235990613c1e565b60405180910390fd5b61236e60008383611f29565b6001600360008473ffffffffffffffffffffffffffffffffffffffff1673ffffffffffffffffffffffffffffffffffffffff16815260200190815260200160002060008282546123be919061328d565b92505081905550816002600083815260200190815260200160002060006101000a81548173ffffffffffffffffffffffffffffffffffffffff021916908373ffffffffffffffffffffffffffffffffffffffff160217905550808273ffffffffffffffffffffffffffffffffffffffff16600073ffffffffffffffffffffffffffffffffffffffff167fddf252ad1be2c89b69c2b068fc378daa952ba7f163c4a11628f55a4df523b3ef60405160405180910390a461247f60008383611f2e565b5050565b6040518060600160405280600390602082028036833780820191505090505090565b8280546124b190612db6565b90600052602060002090601f0160209004810192826124d3576000855561251a565b82601f106124ec57805160ff191683800117855561251a565b8280016001018555821561251a579182015b828111156125195782518255916020019190600101906124fe565b5b509050612527919061252b565b5090565b5b8082111561254457600081600090555060010161252c565b5090565b6000604051905090565b600080fd5b600080fd5b60007fffffffff0000000000000000000000000000000000000000000000000000000082169050919050565b6125918161255c565b811461259c57600080fd5b50565b6000813590506125ae81612588565b92915050565b6000602082840312156125ca576125c9612552565b5b60006125d88482850161259f565b91505092915050565b60008115159050919050565b6125f6816125e1565b82525050565b600060208201905061261160008301846125ed565b92915050565b600081519050919050565b600082825260208201905092915050565b60005b83811015612651578082015181840152602081019050612636565b83811115612660576000848401525b50505050565b6000601f19601f8301169050919050565b600061268282612617565b61268c8185612622565b935061269c818560208601612633565b6126a581612666565b840191505092915050565b600060208201905081810360008301526126ca8184612677565b905092915050565b6000819050919050565b6126e5816126d2565b81146126f057600080fd5b50565b600081359050612702816126dc565b92915050565b60006020828403121561271e5761271d612552565b5b600061272c848285016126f3565b91505092915050565b600073ffffffffffffffffffffffffffffffffffffffff82169050919050565b600061276082612735565b9050919050565b61277081612755565b82525050565b600060208201905061278b6000830184612767565b92915050565b61279a81612755565b81146127a557600080fd5b50565b6000813590506127b781612791565b92915050565b600080604083850312156127d4576127d3612552565b5b60006127e2858286016127a8565b92505060206127f3858286016126f3565b9150509250929050565b600080fd5b7f4e487b7100000000000000000000000000000000000000000000000000000000600052604160045260246000fd5b61283a82612666565b810181811067ffffffffffffffff8211171561285957612858612802565b5b80604052505050565b600061286c612548565b90506128788282612831565b919050565b600067ffffffffffffffff82111561289857612897612802565b5b602082029050602081019050919050565b600080fd5b60006128c16128bc8461287d565b612862565b905080838252602082019050602084028301858111156128e4576128e36128a9565b5b835b8181101561290d57806128f988826126f3565b8452602084019350506020810190506128e6565b5050509392505050565b600082601f83011261292c5761292b6127fd565b5b813561293c8482602086016128ae565b91505092915050565b6000806040838503121561295c5761295b612552565b5b600061296a858286016126f3565b925050602083013567ffffffffffffffff81111561298b5761298a612557565b5b61299785828601612917565b9150509250929050565b6000806000606084860312156129ba576129b9612552565b5b60006129c8868287016127a8565b93505060206129d9868287016127a8565b92505060406129ea868287016126f3565b9150509250925092565b600060039050919050565b600081905092915050565b6000819050919050565b612a1d816126d2565b82525050565b6000612a2f8383612a14565b60208301905092915050565b6000602082019050919050565b612a51816129f4565b612a5b81846129ff565b9250612a6682612a0a565b8060005b83811015612a97578151612a7e8782612a23565b9650612a8983612a3b565b925050600181019050612a6a565b505050505050565b6000606082019050612ab46000830184612a48565b92915050565b612ac3816126d2565b82525050565b6000602082019050612ade6000830184612aba565b92915050565b600060208284031215612afa57612af9612552565b5b6000612b08848285016127a8565b91505092915050565b612b1a816125e1565b8114612b2557600080fd5b50565b600081359050612b3781612b11565b92915050565b60008060408385031215612b5457612b53612552565b5b6000612b62858286016127a8565b9250506020612b7385828601612b28565b9150509250929050565b7f4e487b7100000000000000000000000000000000000000000000000000000000600052602160045260246000fd5b60038110612bbd57612bbc612b7d565b5b50565b6000819050612bce82612bac565b919050565b6000612bde82612bc0565b9050919050565b612bee81612bd3565b82525050565b6000602082019050612c096000830184612be5565b92915050565b600080fd5b600067ffffffffffffffff821115612c2f57612c2e612802565b5b612c3882612666565b9050602081019050919050565b82818337600083830152505050565b6000612c67612c6284612c14565b612862565b905082815260208101848484011115612c8357612c82612c0f565b5b612c8e848285612c45565b509392505050565b600082601f830112612cab57612caa6127fd565b5b8135612cbb848260208601612c54565b91505092915050565b60008060008060808587031215612cde57612cdd612552565b5b6000612cec878288016127a8565b9450506020612cfd878288016127a8565b9350506040612d0e878288016126f3565b925050606085013567ffffffffffffffff811115612d2f57612d2e612557565b5b612d3b87828801612c96565b91505092959194509250565b60008060408385031215612d5e57612d5d612552565b5b6000612d6c858286016127a8565b9250506020612d7d858286016127a8565b9150509250929050565b7f4e487b7100000000000000000000000000000000000000000000000000000000600052602260045260246000fd5b60006002820490506001821680612dce57607f821691505b60208210811415612de257612de1612d87565b5b50919050565b7f4552433732313a20617070726f76656420717565727920666f72206e6f6e657860008201527f697374656e7420746f6b656e0000000000000000000000000000000000000000602082015250565b6000612e44602c83612622565b9150612e4f82612de8565b604082019050919050565b60006020820190508181036000830152612e7381612e37565b9050919050565b7f4552433732313a20617070726f76616c20746f2063757272656e74206f776e6560008201527f7200000000000000000000000000000000000000000000000000000000000000602082015250565b6000612ed6602183612622565b9150612ee182612e7a565b604082019050919050565b60006020820190508181036000830152612f0581612ec9565b9050919050565b7f4552433732313a20617070726f76652063616c6c6572206973206e6f74206f7760008201527f6e6572206e6f7220617070726f76656420666f7220616c6c0000000000000000602082015250565b6000612f68603883612622565b9150612f7382612f0c565b604082019050919050565b60006020820190508181036000830152612f9781612f5b565b9050919050565b6000604082019050612fb36000830185612767565b612fc06020830184612767565b9392505050565b7f4552433732313a207472616e736665722063616c6c6572206973206e6f74206f60008201527f776e6572206e6f7220617070726f766564000000000000000000000000000000602082015250565b6000613023603183612622565b915061302e82612fc7565b604082019050919050565b6000602082019050818103600083015261305281613016565b9050919050565b7f4e487b7100000000000000000000000000000000000000000000000000000000600052603260045260246000fd5b7f4f776e61626c653a2063616c6c6572206973206e6f7420746865206f776e6572600082015250565b60006130be602083612622565b91506130c982613088565b602082019050919050565b600060208201905081810360008301526130ed816130b1565b9050919050565b600081905092915050565b50565b600061310f6000836130f4565b915061311a826130ff565b600082019050919050565b600061313082613102565b9150819050919050565b7f4552433732313a206f776e657220717565727920666f72206e6f6e657869737460008201527f656e7420746f6b656e0000000000000000000000000000000000000000000000602082015250565b6000613196602983612622565b91506131a18261313a565b604082019050919050565b600060208201905081810360008301526131c581613189565b9050919050565b7f4552433732313a2062616c616e636520717565727920666f7220746865207a6560008201527f726f206164647265737300000000000000000000000000000000000000000000602082015250565b6000613228602a83612622565b9150613233826131cc565b604082019050919050565b600060208201905081810360008301526132578161321b565b9050919050565b7f4e487b7100000000000000000000000000000000000000000000000000000000600052601160045260246000fd5b6000613298826126d2565b91506132a3836126d2565b9250827fffffffffffffffffffffffffffffffffffffffffffffffffffffffffffffffff038211156132d8576132d761325e565b5b828201905092915050565b60006132ee826126d2565b91507fffffffffffffffffffffffffffffffffffffffffffffffffffffffffffffffff8214156133215761332061325e565b5b600182019050919050565b7f45524337323155524953746f726167653a2055524920717565727920666f722060008201527f6e6f6e6578697374656e7420746f6b656e000000000000000000000000000000602082015250565b6000613388603183612622565b91506133938261332c565b604082019050919050565b600060208201905081810360008301526133b78161337b565b9050919050565b600081905092915050565b60006133d482612617565b6133de81856133be565b93506133ee818560208601612633565b80840191505092915050565b600061340682856133c9565b915061341282846133c9565b91508190509392505050565b6000819050919050565b6134318161341e565b82525050565b600067ffffffffffffffff82169050919050565b61345481613437565b82525050565b600061ffff82169050919050565b6134718161345a565b82525050565b600063ffffffff82169050919050565b61349081613477565b82525050565b600060a0820190506134ab6000830188613428565b6134b8602083018761344b565b6134c56040830186613468565b6134d26060830185613487565b6134df6080830184613487565b9695505050505050565b6000815190506134f8816126dc565b92915050565b60006020828403121561351457613513612552565b5b6000613522848285016134e9565b91505092915050565b7f4f776e61626c653a206e6577206f776e657220697320746865207a65726f206160008201527f6464726573730000000000000000000000000000000000000000000000000000602082015250565b6000613587602683612622565b91506135928261352b565b604082019050919050565b600060208201905081810360008301526135b68161357a565b9050919050565b7f4e487b7100000000000000000000000000000000000000000000000000000000600052601260045260246000fd5b60006135f7826126d2565b9150613602836126d2565b925082613612576136116135bd565b5b828206905092915050565b60006040820190506136326000830185612be5565b61363f6020830184612767565b9392505050565b7f4552433732313a206f70657261746f7220717565727920666f72206e6f6e657860008201527f697374656e7420746f6b656e0000000000000000000000000000000000000000602082015250565b60006136a2602c83612622565b91506136ad82613646565b604082019050919050565b600060208201905081810360008301526136d181613695565b9050919050565b7f4552433732313a207472616e736665722066726f6d20696e636f72726563742060008201527f6f776e6572000000000000000000000000000000000000000000000000000000602082015250565b6000613734602583612622565b915061373f826136d8565b604082019050919050565b6000602082019050818103600083015261376381613727565b9050919050565b7f4552433732313a207472616e7366657220746f20746865207a65726f2061646460008201527f7265737300000000000000000000000000000000000000000000000000000000602082015250565b60006137c6602483612622565b91506137d18261376a565b604082019050919050565b600060208201905081810360008301526137f5816137b9565b9050919050565b6000613807826126d2565b9150613812836126d2565b9250828210156138255761382461325e565b5b828203905092915050565b7f4552433732313a20617070726f766520746f2063616c6c657200000000000000600082015250565b6000613866601983612622565b915061387182613830565b602082019050919050565b6000602082019050818103600083015261389581613859565b9050919050565b7f4552433732313a207472616e7366657220746f206e6f6e20455243373231526560008201527f63656976657220696d706c656d656e7465720000000000000000000000000000602082015250565b60006138f8603283612622565b91506139038261389c565b604082019050919050565b60006020820190508181036000830152613927816138eb565b9050919050565b7f4552433732314d657461646174613a2055524920717565727920666f72206e6f60008201527f6e6578697374656e7420746f6b656e0000000000000000000000000000000000602082015250565b600061398a602f83612622565b91506139958261392e565b604082019050919050565b600060208201905081810360008301526139b98161397d565b9050919050565b7f45524337323155524953746f726167653a2055524920736574206f66206e6f6e60008201527f6578697374656e7420746f6b656e000000000000000000000000000000000000602082015250565b6000613a1c602e83612622565b9150613a27826139c0565b604082019050919050565b60006020820190508181036000830152613a4b81613a0f565b9050919050565b600081519050919050565b600082825260208201905092915050565b6000613a7982613a52565b613a838185613a5d565b9350613a93818560208601612633565b613a9c81612666565b840191505092915050565b6000608082019050613abc6000830187612767565b613ac96020830186612767565b613ad66040830185612aba565b8181036060830152613ae88184613a6e565b905095945050505050565b600081519050613b0281612588565b92915050565b600060208284031215613b1e57613b1d612552565b5b6000613b2c84828501613af3565b91505092915050565b6000613b40826126d2565b9150613b4b836126d2565b925082613b5b57613b5a6135bd565b5b828204905092915050565b7f4552433732313a206d696e7420746f20746865207a65726f2061646472657373600082015250565b6000613b9c602083612622565b9150613ba782613b66565b602082019050919050565b60006020820190508181036000830152613bcb81613b8f565b9050919050565b7f4552433732313a20746f6b656e20616c7265616479206d696e74656400000000600082015250565b6000613c08601c83612622565b9150613c1382613bd2565b602082019050919050565b60006020820190508181036000830152613c3781613bfb565b905091905056fea264697066735822122052abce0dcb71a3925dc8eca1da5e48508004a075b07b29bfea41cd0d5a5c023864736f6c63430008080033",
  "linkReferences": {},
  "deployedLinkReferences": {}
}