{
  "_format": "hh-sol-artifact-1",
  "contractName": "RandomIpfsNft",
  "sourceName": "contracts/RandomIpfsNft.sol",
  "abi": [
    {
      "inputs": [
        {
          "internalType": "address",
          "name": "vrfCoordinatorV2",
          "type": "address"
        },
        {
          "internalType": "uint64",
          "name": "subscriptionId",
          "type": "uint64"
        },
        {
          "internalType": "bytes32",
          "name": "gasLane",
          "type": "bytes32"
        },
        {
          "internalType": "uint32",
          "name": "callbackGasLimit",
          "type": "uint32"
        },
        {
          "internalType": "string[3]",
          "name": "dogTokenUris",
          "type": "string[3]"
        },
        {
          "internalType": "uint256",
          "name": "mintFee",
          "type": "uint256"
        }
      ],
      "stateMutability": "nonpayable",
      "type": "constructor"
    },
    {
      "inputs": [
        {
          "internalType": "address",
          "name": "have",
          "type": "address"
        },
        {
          "internalType": "address",
          "name": "want",
          "type": "address"
        }
      ],
      "name": "OnlyCoordinatorCanFulfill",
      "type": "error"
    },
    {
      "inputs": [],
      "name": "RandomIpfsNft_NeedMoreETHSent",
      "type": "error"
    },
    {
      "inputs": [],
      "name": "RandomIpfsNft_RangeOutOgBounds",
      "type": "error"
    },
    {
      "inputs": [],
      "name": "RandomIpfsNft_TransferFailed",
      "type": "error"
    },
    {
      "anonymous": false,
      "inputs": [
        {
          "indexed": true,
          "internalType": "address",
          "name": "owner",
          "type": "address"
        },
        {
          "indexed": true,
          "internalType": "address",
          "name": "approved",
          "type": "address"
        },
        {
          "indexed": true,
          "internalType": "uint256",
          "name": "tokenId",
          "type": "uint256"
        }
      ],
      "name": "Approval",
      "type": "event"
    },
    {
      "anonymous": false,
      "inputs": [
        {
          "indexed": true,
          "internalType": "address",
          "name": "owner",
          "type": "address"
        },
        {
          "indexed": true,
          "internalType": "address",
          "name": "operator",
          "type": "address"
        },
        {
          "indexed": false,
          "internalType": "bool",
          "name": "approved",
          "type": "bool"
        }
      ],
      "name": "ApprovalForAll",
      "type": "event"
    },
    {
      "anonymous": false,
      "inputs": [
        {
          "indexed": false,
          "internalType": "enum RandomIpfsNft.Breed",
          "name": "dogBreed",
          "type": "uint8"
        },
        {
          "indexed": false,
          "internalType": "address",
          "name": "minter",
          "type": "address"
        }
      ],
      "name": "NftMinted",
      "type": "event"
    },
    {
      "anonymous": false,
      "inputs": [
        {
          "indexed": true,
          "internalType": "uint256",
          "name": "requestId",
          "type": "uint256"
        },
        {
          "indexed": false,
          "internalType": "address",
          "name": "requester",
          "type": "address"
        }
      ],
      "name": "NftRequested",
      "type": "event"
    },
    {
      "anonymous": false,
      "inputs": [
        {
          "indexed": true,
          "internalType": "address",
          "name": "previousOwner",
          "type": "address"
        },
        {
          "indexed": true,
          "internalType": "address",
          "name": "newOwner",
          "type": "address"
        }
      ],
      "name": "OwnershipTransferred",
      "type": "event"
    },
    {
      "anonymous": false,
      "inputs": [
        {
          "indexed": true,
          "internalType": "address",
          "name": "from",
          "type": "address"
        },
        {
          "indexed": true,
          "internalType": "address",
          "name": "to",
          "type": "address"
        },
        {
          "indexed": true,
          "internalType": "uint256",
          "name": "tokenId",
          "type": "uint256"
        }
      ],
      "name": "Transfer",
      "type": "event"
    },
    {
      "inputs": [
        {
          "internalType": "address",
          "name": "to",
          "type": "address"
        },
        {
          "internalType": "uint256",
          "name": "tokenId",
          "type": "uint256"
        }
      ],
      "name": "approve",
      "outputs": [],
      "stateMutability": "nonpayable",
      "type": "function"
    },
    {
      "inputs": [
        {
          "internalType": "address",
          "name": "owner",
          "type": "address"
        }
      ],
      "name": "balanceOf",
      "outputs": [
        {
          "internalType": "uint256",
          "name": "",
          "type": "uint256"
        }
      ],
      "stateMutability": "view",
      "type": "function"
    },
    {
      "inputs": [
        {
          "internalType": "uint256",
          "name": "tokenId",
          "type": "uint256"
        }
      ],
      "name": "getApproved",
      "outputs": [
        {
          "internalType": "address",
          "name": "",
          "type": "address"
        }
      ],
      "stateMutability": "view",
      "type": "function"
    },
    {
      "inputs": [
        {
          "internalType": "uint256",
          "name": "moddedRng",
          "type": "uint256"
        }
      ],
      "name": "getBreedFromModdedRng",
      "outputs": [
        {
          "internalType": "enum RandomIpfsNft.Breed",
          "name": "",
          "type": "uint8"
        }
      ],
      "stateMutability": "pure",
      "type": "function"
    },
    {
      "inputs": [],
      "name": "getChanceArray",
      "outputs": [
        {
          "internalType": "uint256[3]",
          "name": "",
          "type": "uint256[3]"
        }
      ],
      "stateMutability": "pure",
      "type": "function"
    },
    {
      "inputs": [
        {
          "internalType": "uint256",
          "name": "index",
          "type": "uint256"
        }
      ],
      "name": "getDogTokenUris",
      "outputs": [
        {
          "internalType": "string",
          "name": "",
          "type": "string"
        }
      ],
      "stateMutability": "view",
      "type": "function"
    },
    {
      "inputs": [],
      "name": "getMintFee",
      "outputs": [
        {
          "internalType": "uint256",
          "name": "",
          "type": "uint256"
        }
      ],
      "stateMutability": "view",
      "type": "function"
    },
    {
      "inputs": [],
      "name": "getTokenCounter",
      "outputs": [
        {
          "internalType": "uint256",
          "name": "",
          "type": "uint256"
        }
      ],
      "stateMutability": "view",
      "type": "function"
    },
    {
      "inputs": [
        {
          "internalType": "address",
          "name": "owner",
          "type": "address"
        },
        {
          "internalType": "address",
          "name": "operator",
          "type": "address"
        }
      ],
      "name": "isApprovedForAll",
      "outputs": [
        {
          "internalType": "bool",
          "name": "",
          "type": "bool"
        }
      ],
      "stateMutability": "view",
      "type": "function"
    },
    {
      "inputs": [],
      "name": "name",
      "outputs": [
        {
          "internalType": "string",
          "name": "",
          "type": "string"
        }
      ],
      "stateMutability": "view",
      "type": "function"
    },
    {
      "inputs": [],
      "name": "owner",
      "outputs": [
        {
          "internalType": "address",
          "name": "",
          "type": "address"
        }
      ],
      "stateMutability": "view",
      "type": "function"
    },
    {
      "inputs": [
        {
          "internalType": "uint256",
          "name": "tokenId",
          "type": "uint256"
        }
      ],
      "name": "ownerOf",
      "outputs": [
        {
          "internalType": "address",
          "name": "",
          "type": "address"
        }
      ],
      "stateMutability": "view",
      "type": "function"
    },
    {
      "inputs": [
        {
          "internalType": "uint256",
          "name": "requestId",
          "type": "uint256"
        },
        {
          "internalType": "uint256[]",
          "name": "randomWords",
          "type": "uint256[]"
        }
      ],
      "name": "rawFulfillRandomWords",
      "outputs": [],
      "stateMutability": "nonpayable",
      "type": "function"
    },
    {
      "inputs": [],
      "name": "renounceOwnership",
      "outputs": [],
      "stateMutability": "nonpayable",
      "type": "function"
    },
    {
      "inputs": [
        {
          "internalType": "uint256",
          "name": "requestId",
          "type": "uint256"
        }
      ],
      "name": "requestNft",
      "outputs": [
        {
          "internalType": "uint256",
          "name": "",
          "type": "uint256"
        }
      ],
      "stateMutability": "payable",
      "type": "function"
    },
    {
      "inputs": [
        {
          "internalType": "address",
          "name": "from",
          "type": "address"
        },
        {
          "internalType": "address",
          "name": "to",
          "type": "address"
        },
        {
          "internalType": "uint256",
          "name": "tokenId",
          "type": "uint256"
        }
      ],
      "name": "safeTransferFrom",
      "outputs": [],
      "stateMutability": "nonpayable",
      "type": "function"
    },
    {
      "inputs": [
        {
          "internalType": "address",
          "name": "from",
          "type": "address"
        },
        {
          "internalType": "address",
          "name": "to",
          "type": "address"
        },
        {
          "internalType": "uint256",
          "name": "tokenId",
          "type": "uint256"
        },
        {
          "internalType": "bytes",
          "name": "_data",
          "type": "bytes"
        }
      ],
      "name": "safeTransferFrom",
      "outputs": [],
      "stateMutability": "nonpayable",
      "type": "function"
    },
    {
      "inputs": [
        {
          "internalType": "address",
          "name": "operator",
          "type": "address"
        },
        {
          "internalType": "bool",
          "name": "approved",
          "type": "bool"
        }
      ],
      "name": "setApprovalForAll",
      "outputs": [],
      "stateMutability": "nonpayable",
      "type": "function"
    },
    {
      "inputs": [
        {
          "internalType": "bytes4",
          "name": "interfaceId",
          "type": "bytes4"
        }
      ],
      "name": "supportsInterface",
      "outputs": [
        {
          "internalType": "bool",
          "name": "",
          "type": "bool"
        }
      ],
      "stateMutability": "view",
      "type": "function"
    },
    {
      "inputs": [],
      "name": "symbol",
      "outputs": [
        {
          "internalType": "string",
          "name": "",
          "type": "string"
        }
      ],
      "stateMutability": "view",
      "type": "function"
    },
    {
      "inputs": [
        {
          "internalType": "uint256",
          "name": "tokenId",
          "type": "uint256"
        }
      ],
      "name": "tokenURI",
      "outputs": [
        {
          "internalType": "string",
          "name": "",
          "type": "string"
        }
      ],
      "stateMutability": "view",
      "type": "function"
    },
    {
      "inputs": [
        {
          "internalType": "address",
          "name": "from",
          "type": "address"
        },
        {
          "internalType": "address",
          "name": "to",
          "type": "address"
        },
        {
          "internalType": "uint256",
          "name": "tokenId",
          "type": "uint256"
        }
      ],
      "name": "transferFrom",
      "outputs": [],
      "stateMutability": "nonpayable",
      "type": "function"
    },
    {
      "inputs": [
        {
          "internalType": "address",
          "name": "newOwner",
          "type": "address"
        }
      ],
      "name": "transferOwnership",
      "outputs": [],
      "stateMutability": "nonpayable",
      "type": "function"
    },
    {
      "inputs": [],
      "name": "withdraw",
      "outputs": [],
      "stateMutability": "nonpayable",
      "type": "function"
    }
  ],
  "bytecode": "0x6101206040523480156200001257600080fd5b506040516200461038038062004610833981810160405281019062000038919062000809565b6040518060400160405280600f81526020017f52616e646f6d2049504653204e465400000000000000000000000000000000008152506040518060400160405280600381526020017f52494e0000000000000000000000000000000000000000000000000000000000815250878073ffffffffffffffffffffffffffffffffffffffff1660808173ffffffffffffffffffffffffffffffffffffffff1660601b81525050508160009080519060200190620000f59291906200029c565b5080600190805190602001906200010e9291906200029c565b5050506200013162000125620001ce60201b60201c565b620001d660201b60201c565b8573ffffffffffffffffffffffffffffffffffffffff1660a08173ffffffffffffffffffffffffffffffffffffffff1660601b815250508467ffffffffffffffff1660c08167ffffffffffffffff1660c01b815250508360e081815250508263ffffffff166101008163ffffffff1660e01b8152505081600a906003620001ba9291906200032d565b5080600b8190555050505050505062000929565b600033905090565b6000600760009054906101000a900473ffffffffffffffffffffffffffffffffffffffff16905081600760006101000a81548173ffffffffffffffffffffffffffffffffffffffff021916908373ffffffffffffffffffffffffffffffffffffffff1602179055508173ffffffffffffffffffffffffffffffffffffffff168173ffffffffffffffffffffffffffffffffffffffff167f8be0079c531659141344cd1fd0a4f28419497f9722a3daafe3b4186f6b6457e060405160405180910390a35050565b828054620002aa90620008f3565b90600052602060002090601f016020900481019282620002ce57600085556200031a565b82601f10620002e957805160ff19168380011785556200031a565b828001600101855582156200031a579182015b8281111562000319578251825591602001919060010190620002fc565b5b50905062000329919062000394565b5090565b82805482825590600052602060002090810192821562000381579160200282015b82811115620003805782518290805190602001906200036f9291906200029c565b50916020019190600101906200034e565b5b509050620003909190620003b3565b5090565b5b80821115620003af57600081600090555060010162000395565b5090565b5b80821115620003d75760008181620003cd9190620003db565b50600101620003b4565b5090565b508054620003e990620008f3565b6000825580601f10620003fd57506200041e565b601f0160209004906000526020600020908101906200041d919062000394565b5b50565b6000604051905090565b600080fd5b600080fd5b600073ffffffffffffffffffffffffffffffffffffffff82169050919050565b6000620004628262000435565b9050919050565b620004748162000455565b81146200048057600080fd5b50565b600081519050620004948162000469565b92915050565b600067ffffffffffffffff82169050919050565b620004b9816200049a565b8114620004c557600080fd5b50565b600081519050620004d981620004ae565b92915050565b6000819050919050565b620004f481620004df565b81146200050057600080fd5b50565b6000815190506200051481620004e9565b92915050565b600063ffffffff82169050919050565b62000535816200051a565b81146200054157600080fd5b50565b60008151905062000555816200052a565b92915050565b600080fd5b6000601f19601f8301169050919050565b7f4e487b7100000000000000000000000000000000000000000000000000000000600052604160045260246000fd5b620005ab8262000560565b810181811067ffffffffffffffff82111715620005cd57620005cc62000571565b5b80604052505050565b6000620005e262000421565b9050620005f08282620005a0565b919050565b600067ffffffffffffffff82111562000613576200061262000571565b5b602082029050919050565b600080fd5b600080fd5b600067ffffffffffffffff82111562000646576200064562000571565b5b620006518262000560565b9050602081019050919050565b60005b838110156200067e57808201518184015260208101905062000661565b838111156200068e576000848401525b50505050565b6000620006ab620006a58462000628565b620005d6565b905082815260208101848484011115620006ca57620006c962000623565b5b620006d78482856200065e565b509392505050565b600082601f830112620006f757620006f66200055b565b5b81516200070984826020860162000694565b91505092915050565b6000620007296200072384620005f5565b620005d6565b905080602084028301858111156200074657620007456200061e565b5b835b818110156200079457805167ffffffffffffffff8111156200076f576200076e6200055b565b5b8086016200077e8982620006df565b8552602085019450505060208101905062000748565b5050509392505050565b600082601f830112620007b657620007b56200055b565b5b6003620007c584828562000712565b91505092915050565b6000819050919050565b620007e381620007ce565b8114620007ef57600080fd5b50565b6000815190506200080381620007d8565b92915050565b60008060008060008060c087890312156200082957620008286200042b565b5b60006200083989828a0162000483565b96505060206200084c89828a01620004c8565b95505060406200085f89828a0162000503565b94505060606200087289828a0162000544565b935050608087015167ffffffffffffffff81111562000896576200089562000430565b5b620008a489828a016200079e565b92505060a0620008b789828a01620007f2565b9150509295509295509295565b7f4e487b7100000000000000000000000000000000000000000000000000000000600052602260045260246000fd5b600060028204905060018216806200090c57607f821691505b60208210811415620009235762000922620008c4565b5b50919050565b60805160601c60a05160601c60c05160c01c60e0516101005160e01c613c8f620009816000396000611239015260006111f501526000611216015260006111b90152600081816108ca015261091e0152613c8f6000f3fe60806040526004361061014b5760003560e01c806370a08231116100b6578063a51cccf31161006f578063a51cccf31461047e578063b88d4fde146104bb578063c87b56dd146104e4578063e71d201114610521578063e985e9c514610551578063f2fde38b1461058e5761014b565b806370a0823114610380578063715018a6146103bd5780637a5caab3146103d45780638da5cb5b146103ff57806395d89b411461042a578063a22cb465146104555761014b565b80633af25975116101085780633af25975146102705780633ccfd60b146102ad57806342842e0e146102c45780635dacf5f4146102ed5780636352211e146103185780636e02007d146103555761014b565b806301ffc9a71461015057806306fdde031461018d578063081812fc146101b8578063095ea7b3146101f55780631fe543e31461021e57806323b872dd14610247575b600080fd5b34801561015c57600080fd5b50610177600480360381019061017291906125cf565b6105b7565b6040516101849190612617565b60405180910390f35b34801561019957600080fd5b506101a2610699565b6040516101af91906126cb565b60405180910390f35b3480156101c457600080fd5b506101df60048036038101906101da9190612723565b61072b565b6040516101ec9190612791565b60405180910390f35b34801561020157600080fd5b5061021c600480360381019061021791906127d8565b6107b0565b005b34801561022a57600080fd5b5061024560048036038101906102409190612960565b6108c8565b005b34801561025357600080fd5b5061026e600480360381019061026991906129bc565b610988565b005b34801561027c57600080fd5b5061029760048036038101906102929190612723565b6109e8565b6040516102a491906126cb565b60405180910390f35b3480156102b957600080fd5b506102c2610a98565b005b3480156102d057600080fd5b506102eb60048036038101906102e691906129bc565b610bc0565b005b3480156102f957600080fd5b50610302610be0565b60405161030f9190612aba565b60405180910390f35b34801561032457600080fd5b5061033f600480360381019061033a9190612723565b610c0b565b60405161034c9190612791565b60405180910390f35b34801561036157600080fd5b5061036a610cbd565b6040516103779190612ae4565b60405180910390f35b34801561038c57600080fd5b506103a760048036038101906103a29190612aff565b610cc7565b6040516103b49190612ae4565b60405180910390f35b3480156103c957600080fd5b506103d2610d7f565b005b3480156103e057600080fd5b506103e9610e07565b6040516103f69190612ae4565b60405180910390f35b34801561040b57600080fd5b50610414610e11565b6040516104219190612791565b60405180910390f35b34801561043657600080fd5b5061043f610e3b565b60405161044c91906126cb565b60405180910390f35b34801561046157600080fd5b5061047c60048036038101906104779190612b58565b610ecd565b005b34801561048a57600080fd5b506104a560048036038101906104a09190612723565b610ee3565b6040516104b29190612c0f565b60405180910390f35b3480156104c757600080fd5b506104e260048036038101906104dd9190612cdf565b610fc5565b005b3480156104f057600080fd5b5061050b60048036038101906105069190612723565b611027565b60405161051891906126cb565b60405180910390f35b61053b60048036038101906105369190612723565b611179565b6040516105489190612ae4565b60405180910390f35b34801561055d57600080fd5b5061057860048036038101906105739190612d62565b61135d565b6040516105859190612617565b60405180910390f35b34801561059a57600080fd5b506105b560048036038101906105b09190612aff565b6113f1565b005b60007f80ac58cd000000000000000000000000000000000000000000000000000000007bffffffffffffffffffffffffffffffffffffffffffffffffffffffff1916827bffffffffffffffffffffffffffffffffffffffffffffffffffffffff1916148061068257507f5b5e139f000000000000000000000000000000000000000000000000000000007bffffffffffffffffffffffffffffffffffffffffffffffffffffffff1916827bffffffffffffffffffffffffffffffffffffffffffffffffffffffff1916145b806106925750610691826114e9565b5b9050919050565b6060600080546106a890612dd1565b80601f01602080910402602001604051908101604052809291908181526020018280546106d490612dd1565b80156107215780601f106106f657610100808354040283529160200191610721565b820191906000526020600020905b81548152906001019060200180831161070457829003601f168201915b5050505050905090565b600061073682611553565b610775576040517f08c379a000000000000000000000000000000000000000000000000000000000815260040161076c90612e75565b60405180910390fd5b6004600083815260200190815260200160002060009054906101000a900473ffffffffffffffffffffffffffffffffffffffff169050919050565b60006107bb82610c0b565b90508073ffffffffffffffffffffffffffffffffffffffff168373ffffffffffffffffffffffffffffffffffffffff16141561082c576040517f08c379a000000000000000000000000000000000000000000000000000000000815260040161082390612f07565b60405180910390fd5b8073ffffffffffffffffffffffffffffffffffffffff1661084b6115bf565b73ffffffffffffffffffffffffffffffffffffffff16148061087a5750610879816108746115bf565b61135d565b5b6108b9576040517f08c379a00000000000000000000000000000000000000000000000000000000081526004016108b090612f99565b60405180910390fd5b6108c383836115c7565b505050565b7f000000000000000000000000000000000000000000000000000000000000000073ffffffffffffffffffffffffffffffffffffffff163373ffffffffffffffffffffffffffffffffffffffff161461097a57337f00000000000000000000000000000000000000000000000000000000000000006040517f1cf993f4000000000000000000000000000000000000000000000000000000008152600401610971929190612fb9565b60405180910390fd5b6109848282611680565b5050565b6109996109936115bf565b82611820565b6109d8576040517f08c379a00000000000000000000000000000000000000000000000000000000081526004016109cf90613054565b60405180910390fd5b6109e38383836118fe565b505050565b6060600a82815481106109fe576109fd613074565b5b906000526020600020018054610a1390612dd1565b80601f0160208091040260200160405190810160405280929190818152602001828054610a3f90612dd1565b8015610a8c5780601f10610a6157610100808354040283529160200191610a8c565b820191906000526020600020905b815481529060010190602001808311610a6f57829003601f168201915b50505050509050919050565b610aa06115bf565b73ffffffffffffffffffffffffffffffffffffffff16610abe610e11565b73ffffffffffffffffffffffffffffffffffffffff1614610b14576040517f08c379a0000000000000000000000000000000000000000000000000000000008152600401610b0b906130ef565b60405180910390fd5b600047905060003373ffffffffffffffffffffffffffffffffffffffff1682604051610b3f90613140565b60006040518083038185875af1925050503d8060008114610b7c576040519150601f19603f3d011682016040523d82523d6000602084013e610b81565b606091505b5050905080610bbc576040517f5586f5d000000000000000000000000000000000000000000000000000000000815260040160405180910390fd5b5050565b610bdb83838360405180602001604052806000815250610fc5565b505050565b610be861249e565b6040518060600160405280600a8152602001601e81526020016064815250905090565b6000806002600084815260200190815260200160002060009054906101000a900473ffffffffffffffffffffffffffffffffffffffff169050600073ffffffffffffffffffffffffffffffffffffffff168173ffffffffffffffffffffffffffffffffffffffff161415610cb4576040517f08c379a0000000000000000000000000000000000000000000000000000000008152600401610cab906131c7565b60405180910390fd5b80915050919050565b6000600954905090565b60008073ffffffffffffffffffffffffffffffffffffffff168273ffffffffffffffffffffffffffffffffffffffff161415610d38576040517f08c379a0000000000000000000000000000000000000000000000000000000008152600401610d2f90613259565b60405180910390fd5b600360008373ffffffffffffffffffffffffffffffffffffffff1673ffffffffffffffffffffffffffffffffffffffff168152602001908152602001600020549050919050565b610d876115bf565b73ffffffffffffffffffffffffffffffffffffffff16610da5610e11565b73ffffffffffffffffffffffffffffffffffffffff1614610dfb576040517f08c379a0000000000000000000000000000000000000000000000000000000008152600401610df2906130ef565b60405180910390fd5b610e056000611b65565b565b6000600b54905090565b6000600760009054906101000a900473ffffffffffffffffffffffffffffffffffffffff16905090565b606060018054610e4a90612dd1565b80601f0160208091040260200160405190810160405280929190818152602001828054610e7690612dd1565b8015610ec35780601f10610e9857610100808354040283529160200191610ec3565b820191906000526020600020905b815481529060010190602001808311610ea657829003601f168201915b5050505050905090565b610edf610ed86115bf565b8383611c2b565b5050565b600080600090506000610ef4610be0565b905060005b6003811015610f8d57828510158015610f335750818160038110610f2057610f1f613074565b5b602002015183610f3091906132a8565b85105b15610f5557806002811115610f4b57610f4a612b98565b5b9350505050610fc0565b818160038110610f6857610f67613074565b5b602002015183610f7891906132a8565b92508080610f85906132fe565b915050610ef9565b506040517f6ddecf7100000000000000000000000000000000000000000000000000000000815260040160405180910390fd5b919050565b610fd6610fd06115bf565b83611820565b611015576040517f08c379a000000000000000000000000000000000000000000000000000000000815260040161100c90613054565b60405180910390fd5b61102184848484611d98565b50505050565b606061103282611553565b611071576040517f08c379a0000000000000000000000000000000000000000000000000000000008152600401611068906133b9565b60405180910390fd5b600060066000848152602001908152602001600020805461109190612dd1565b80601f01602080910402602001604051908101604052809291908181526020018280546110bd90612dd1565b801561110a5780601f106110df5761010080835404028352916020019161110a565b820191906000526020600020905b8154815290600101906020018083116110ed57829003601f168201915b50505050509050600061111b611df4565b9050600081511415611131578192505050611174565b60008251111561116657808260405160200161114e929190613415565b60405160208183030381529060405292505050611174565b61116f84611e0b565b925050505b919050565b6000600b543410156111b7576040517feb7246a800000000000000000000000000000000000000000000000000000000815260040160405180910390fd5b7f000000000000000000000000000000000000000000000000000000000000000073ffffffffffffffffffffffffffffffffffffffff16635d3b1d307f00000000000000000000000000000000000000000000000000000000000000007f000000000000000000000000000000000000000000000000000000000000000060037f000000000000000000000000000000000000000000000000000000000000000060016040518663ffffffff1660e01b815260040161127a9594939291906134b1565b602060405180830381600087803b15801561129457600080fd5b505af11580156112a8573d6000803e3d6000fd5b505050506040513d601f19601f820116820180604052508101906112cc9190613519565b9150336008600084815260200190815260200160002060006101000a81548173ffffffffffffffffffffffffffffffffffffffff021916908373ffffffffffffffffffffffffffffffffffffffff160217905550817ff873236e6cc0ecc5be1a9a35c95ee5b8d1ac4cc7bfef0cc5060391d6cc98e26b336040516113509190612791565b60405180910390a2919050565b6000600560008473ffffffffffffffffffffffffffffffffffffffff1673ffffffffffffffffffffffffffffffffffffffff16815260200190815260200160002060008373ffffffffffffffffffffffffffffffffffffffff1673ffffffffffffffffffffffffffffffffffffffff16815260200190815260200160002060009054906101000a900460ff16905092915050565b6113f96115bf565b73ffffffffffffffffffffffffffffffffffffffff16611417610e11565b73ffffffffffffffffffffffffffffffffffffffff161461146d576040517f08c379a0000000000000000000000000000000000000000000000000000000008152600401611464906130ef565b60405180910390fd5b600073ffffffffffffffffffffffffffffffffffffffff168173ffffffffffffffffffffffffffffffffffffffff1614156114dd576040517f08c379a00000000000000000000000000000000000000000000000000000000081526004016114d4906135b8565b60405180910390fd5b6114e681611b65565b50565b60007f01ffc9a7000000000000000000000000000000000000000000000000000000007bffffffffffffffffffffffffffffffffffffffffffffffffffffffff1916827bffffffffffffffffffffffffffffffffffffffffffffffffffffffff1916149050919050565b60008073ffffffffffffffffffffffffffffffffffffffff166002600084815260200190815260200160002060009054906101000a900473ffffffffffffffffffffffffffffffffffffffff1673ffffffffffffffffffffffffffffffffffffffff1614159050919050565b600033905090565b816004600083815260200190815260200160002060006101000a81548173ffffffffffffffffffffffffffffffffffffffff021916908373ffffffffffffffffffffffffffffffffffffffff160217905550808273ffffffffffffffffffffffffffffffffffffffff1661163a83610c0b565b73ffffffffffffffffffffffffffffffffffffffff167f8c5be1e5ebec7d5bd14f71427d1e84f3dd0314c0f7b2291e5b200ac8c7c3b92560405160405180910390a45050565b60006008600084815260200190815260200160002060009054906101000a900473ffffffffffffffffffffffffffffffffffffffff1690506000600954905060006064846000815181106116d7576116d6613074565b5b60200260200101516116e99190613607565b905060006116f682610ee3565b90506009546009600082825461170c91906132a8565b9250508190555061171d8484611eb2565b6117df83600a83600281111561173657611735612b98565b5b8154811061174757611746613074565b5b90600052602060002001805461175c90612dd1565b80601f016020809104026020016040519081016040528092919081815260200182805461178890612dd1565b80156117d55780601f106117aa576101008083540402835291602001916117d5565b820191906000526020600020905b8154815290600101906020018083116117b857829003601f168201915b5050505050611ed0565b7f8a269f26b688e110e9cbd887d163dab35cae678fa353a0292de532c0cac1ecdc8185604051611810929190613638565b60405180910390a1505050505050565b600061182b82611553565b61186a576040517f08c379a0000000000000000000000000000000000000000000000000000000008152600401611861906136d3565b60405180910390fd5b600061187583610c0b565b90508073ffffffffffffffffffffffffffffffffffffffff168473ffffffffffffffffffffffffffffffffffffffff1614806118b757506118b6818561135d565b5b806118f557508373ffffffffffffffffffffffffffffffffffffffff166118dd8461072b565b73ffffffffffffffffffffffffffffffffffffffff16145b91505092915050565b8273ffffffffffffffffffffffffffffffffffffffff1661191e82610c0b565b73ffffffffffffffffffffffffffffffffffffffff1614611974576040517f08c379a000000000000000000000000000000000000000000000000000000000815260040161196b90613765565b60405180910390fd5b600073ffffffffffffffffffffffffffffffffffffffff168273ffffffffffffffffffffffffffffffffffffffff1614156119e4576040517f08c379a00000000000000000000000000000000000000000000000000000000081526004016119db906137f7565b60405180910390fd5b6119ef838383611f44565b6119fa6000826115c7565b6001600360008573ffffffffffffffffffffffffffffffffffffffff1673ffffffffffffffffffffffffffffffffffffffff1681526020019081526020016000206000828254611a4a9190613817565b925050819055506001600360008473ffffffffffffffffffffffffffffffffffffffff1673ffffffffffffffffffffffffffffffffffffffff1681526020019081526020016000206000828254611aa191906132a8565b92505081905550816002600083815260200190815260200160002060006101000a81548173ffffffffffffffffffffffffffffffffffffffff021916908373ffffffffffffffffffffffffffffffffffffffff160217905550808273ffffffffffffffffffffffffffffffffffffffff168473ffffffffffffffffffffffffffffffffffffffff167fddf252ad1be2c89b69c2b068fc378daa952ba7f163c4a11628f55a4df523b3ef60405160405180910390a4611b60838383611f49565b505050565b6000600760009054906101000a900473ffffffffffffffffffffffffffffffffffffffff16905081600760006101000a81548173ffffffffffffffffffffffffffffffffffffffff021916908373ffffffffffffffffffffffffffffffffffffffff1602179055508173ffffffffffffffffffffffffffffffffffffffff168173ffffffffffffffffffffffffffffffffffffffff167f8be0079c531659141344cd1fd0a4f28419497f9722a3daafe3b4186f6b6457e060405160405180910390a35050565b8173ffffffffffffffffffffffffffffffffffffffff168373ffffffffffffffffffffffffffffffffffffffff161415611c9a576040517f08c379a0000000000000000000000000000000000000000000000000000000008152600401611c9190613897565b60405180910390fd5b80600560008573ffffffffffffffffffffffffffffffffffffffff1673ffffffffffffffffffffffffffffffffffffffff16815260200190815260200160002060008473ffffffffffffffffffffffffffffffffffffffff1673ffffffffffffffffffffffffffffffffffffffff16815260200190815260200160002060006101000a81548160ff0219169083151502179055508173ffffffffffffffffffffffffffffffffffffffff168373ffffffffffffffffffffffffffffffffffffffff167f17307eab39ab6107e8899845ad3d59bd9653f200f220920489ca2b5937696c3183604051611d8b9190612617565b60405180910390a3505050565b611da38484846118fe565b611daf84848484611f4e565b611dee576040517f08c379a0000000000000000000000000000000000000000000000000000000008152600401611de590613929565b60405180910390fd5b50505050565b606060405180602001604052806000815250905090565b6060611e1682611553565b611e55576040517f08c379a0000000000000000000000000000000000000000000000000000000008152600401611e4c906139bb565b60405180910390fd5b6000611e5f611df4565b90506000815111611e7f5760405180602001604052806000815250611eaa565b80611e89846120e5565b604051602001611e9a929190613415565b6040516020818303038152906040525b915050919050565b611ecc828260405180602001604052806000815250612246565b5050565b611ed982611553565b611f18576040517f08c379a0000000000000000000000000000000000000000000000000000000008152600401611f0f90613a4d565b60405180910390fd5b80600660008481526020019081526020016000209080519060200190611f3f9291906124c0565b505050565b505050565b505050565b6000611f6f8473ffffffffffffffffffffffffffffffffffffffff166122a1565b156120d8578373ffffffffffffffffffffffffffffffffffffffff1663150b7a02611f986115bf565b8786866040518563ffffffff1660e01b8152600401611fba9493929190613ac2565b602060405180830381600087803b158015611fd457600080fd5b505af192505050801561200557506040513d601f19601f820116820180604052508101906120029190613b23565b60015b612088573d8060008114612035576040519150601f19603f3d011682016040523d82523d6000602084013e61203a565b606091505b50600081511415612080576040517f08c379a000000000000000000000000000000000000000000000000000000000815260040161207790613929565b60405180910390fd5b805181602001fd5b63150b7a0260e01b7bffffffffffffffffffffffffffffffffffffffffffffffffffffffff1916817bffffffffffffffffffffffffffffffffffffffffffffffffffffffff1916149150506120dd565b600190505b949350505050565b6060600082141561212d576040518060400160405280600181526020017f30000000000000000000000000000000000000000000000000000000000000008152509050612241565b600082905060005b6000821461215f578080612148906132fe565b915050600a826121589190613b50565b9150612135565b60008167ffffffffffffffff81111561217b5761217a61281d565b5b6040519080825280601f01601f1916602001820160405280156121ad5781602001600182028036833780820191505090505b5090505b6000851461223a576001826121c69190613817565b9150600a856121d59190613607565b60306121e191906132a8565b60f81b8183815181106121f7576121f6613074565b5b60200101907effffffffffffffffffffffffffffffffffffffffffffffffffffffffffffff1916908160001a905350600a856122339190613b50565b94506121b1565b8093505050505b919050565b61225083836122c4565b61225d6000848484611f4e565b61229c576040517f08c379a000000000000000000000000000000000000000000000000000000000815260040161229390613929565b60405180910390fd5b505050565b6000808273ffffffffffffffffffffffffffffffffffffffff163b119050919050565b600073ffffffffffffffffffffffffffffffffffffffff168273ffffffffffffffffffffffffffffffffffffffff161415612334576040517f08c379a000000000000000000000000000000000000000000000000000000000815260040161232b90613bcd565b60405180910390fd5b61233d81611553565b1561237d576040517f08c379a000000000000000000000000000000000000000000000000000000000815260040161237490613c39565b60405180910390fd5b61238960008383611f44565b6001600360008473ffffffffffffffffffffffffffffffffffffffff1673ffffffffffffffffffffffffffffffffffffffff16815260200190815260200160002060008282546123d991906132a8565b92505081905550816002600083815260200190815260200160002060006101000a81548173ffffffffffffffffffffffffffffffffffffffff021916908373ffffffffffffffffffffffffffffffffffffffff160217905550808273ffffffffffffffffffffffffffffffffffffffff16600073ffffffffffffffffffffffffffffffffffffffff167fddf252ad1be2c89b69c2b068fc378daa952ba7f163c4a11628f55a4df523b3ef60405160405180910390a461249a60008383611f49565b5050565b6040518060600160405280600390602082028036833780820191505090505090565b8280546124cc90612dd1565b90600052602060002090601f0160209004810192826124ee5760008555612535565b82601f1061250757805160ff1916838001178555612535565b82800160010185558215612535579182015b82811115612534578251825591602001919060010190612519565b5b5090506125429190612546565b5090565b5b8082111561255f576000816000905550600101612547565b5090565b6000604051905090565b600080fd5b600080fd5b60007fffffffff0000000000000000000000000000000000000000000000000000000082169050919050565b6125ac81612577565b81146125b757600080fd5b50565b6000813590506125c9816125a3565b92915050565b6000602082840312156125e5576125e461256d565b5b60006125f3848285016125ba565b91505092915050565b60008115159050919050565b612611816125fc565b82525050565b600060208201905061262c6000830184612608565b92915050565b600081519050919050565b600082825260208201905092915050565b60005b8381101561266c578082015181840152602081019050612651565b8381111561267b576000848401525b50505050565b6000601f19601f8301169050919050565b600061269d82612632565b6126a7818561263d565b93506126b781856020860161264e565b6126c081612681565b840191505092915050565b600060208201905081810360008301526126e58184612692565b905092915050565b6000819050919050565b612700816126ed565b811461270b57600080fd5b50565b60008135905061271d816126f7565b92915050565b6000602082840312156127395761273861256d565b5b60006127478482850161270e565b91505092915050565b600073ffffffffffffffffffffffffffffffffffffffff82169050919050565b600061277b82612750565b9050919050565b61278b81612770565b82525050565b60006020820190506127a66000830184612782565b92915050565b6127b581612770565b81146127c057600080fd5b50565b6000813590506127d2816127ac565b92915050565b600080604083850312156127ef576127ee61256d565b5b60006127fd858286016127c3565b925050602061280e8582860161270e565b9150509250929050565b600080fd5b7f4e487b7100000000000000000000000000000000000000000000000000000000600052604160045260246000fd5b61285582612681565b810181811067ffffffffffffffff821117156128745761287361281d565b5b80604052505050565b6000612887612563565b9050612893828261284c565b919050565b600067ffffffffffffffff8211156128b3576128b261281d565b5b602082029050602081019050919050565b600080fd5b60006128dc6128d784612898565b61287d565b905080838252602082019050602084028301858111156128ff576128fe6128c4565b5b835b818110156129285780612914888261270e565b845260208401935050602081019050612901565b5050509392505050565b600082601f83011261294757612946612818565b5b81356129578482602086016128c9565b91505092915050565b600080604083850312156129775761297661256d565b5b60006129858582860161270e565b925050602083013567ffffffffffffffff8111156129a6576129a5612572565b5b6129b285828601612932565b9150509250929050565b6000806000606084860312156129d5576129d461256d565b5b60006129e3868287016127c3565b93505060206129f4868287016127c3565b9250506040612a058682870161270e565b9150509250925092565b600060039050919050565b600081905092915050565b6000819050919050565b612a38816126ed565b82525050565b6000612a4a8383612a2f565b60208301905092915050565b6000602082019050919050565b612a6c81612a0f565b612a768184612a1a565b9250612a8182612a25565b8060005b83811015612ab2578151612a998782612a3e565b9650612aa483612a56565b925050600181019050612a85565b505050505050565b6000606082019050612acf6000830184612a63565b92915050565b612ade816126ed565b82525050565b6000602082019050612af96000830184612ad5565b92915050565b600060208284031215612b1557612b1461256d565b5b6000612b23848285016127c3565b91505092915050565b612b35816125fc565b8114612b4057600080fd5b50565b600081359050612b5281612b2c565b92915050565b60008060408385031215612b6f57612b6e61256d565b5b6000612b7d858286016127c3565b9250506020612b8e85828601612b43565b9150509250929050565b7f4e487b7100000000000000000000000000000000000000000000000000000000600052602160045260246000fd5b60038110612bd857612bd7612b98565b5b50565b6000819050612be982612bc7565b919050565b6000612bf982612bdb565b9050919050565b612c0981612bee565b82525050565b6000602082019050612c246000830184612c00565b92915050565b600080fd5b600067ffffffffffffffff821115612c4a57612c4961281d565b5b612c5382612681565b9050602081019050919050565b82818337600083830152505050565b6000612c82612c7d84612c2f565b61287d565b905082815260208101848484011115612c9e57612c9d612c2a565b5b612ca9848285612c60565b509392505050565b600082601f830112612cc657612cc5612818565b5b8135612cd6848260208601612c6f565b91505092915050565b60008060008060808587031215612cf957612cf861256d565b5b6000612d07878288016127c3565b9450506020612d18878288016127c3565b9350506040612d298782880161270e565b925050606085013567ffffffffffffffff811115612d4a57612d49612572565b5b612d5687828801612cb1565b91505092959194509250565b60008060408385031215612d7957612d7861256d565b5b6000612d87858286016127c3565b9250506020612d98858286016127c3565b9150509250929050565b7f4e487b7100000000000000000000000000000000000000000000000000000000600052602260045260246000fd5b60006002820490506001821680612de957607f821691505b60208210811415612dfd57612dfc612da2565b5b50919050565b7f4552433732313a20617070726f76656420717565727920666f72206e6f6e657860008201527f697374656e7420746f6b656e0000000000000000000000000000000000000000602082015250565b6000612e5f602c8361263d565b9150612e6a82612e03565b604082019050919050565b60006020820190508181036000830152612e8e81612e52565b9050919050565b7f4552433732313a20617070726f76616c20746f2063757272656e74206f776e6560008201527f7200000000000000000000000000000000000000000000000000000000000000602082015250565b6000612ef160218361263d565b9150612efc82612e95565b604082019050919050565b60006020820190508181036000830152612f2081612ee4565b9050919050565b7f4552433732313a20617070726f76652063616c6c6572206973206e6f74206f7760008201527f6e6572206e6f7220617070726f76656420666f7220616c6c0000000000000000602082015250565b6000612f8360388361263d565b9150612f8e82612f27565b604082019050919050565b60006020820190508181036000830152612fb281612f76565b9050919050565b6000604082019050612fce6000830185612782565b612fdb6020830184612782565b9392505050565b7f4552433732313a207472616e736665722063616c6c6572206973206e6f74206f60008201527f776e6572206e6f7220617070726f766564000000000000000000000000000000602082015250565b600061303e60318361263d565b915061304982612fe2565b604082019050919050565b6000602082019050818103600083015261306d81613031565b9050919050565b7f4e487b7100000000000000000000000000000000000000000000000000000000600052603260045260246000fd5b7f4f776e61626c653a2063616c6c6572206973206e6f7420746865206f776e6572600082015250565b60006130d960208361263d565b91506130e4826130a3565b602082019050919050565b60006020820190508181036000830152613108816130cc565b9050919050565b600081905092915050565b50565b600061312a60008361310f565b91506131358261311a565b600082019050919050565b600061314b8261311d565b9150819050919050565b7f4552433732313a206f776e657220717565727920666f72206e6f6e657869737460008201527f656e7420746f6b656e0000000000000000000000000000000000000000000000602082015250565b60006131b160298361263d565b91506131bc82613155565b604082019050919050565b600060208201905081810360008301526131e0816131a4565b9050919050565b7f4552433732313a2062616c616e636520717565727920666f7220746865207a6560008201527f726f206164647265737300000000000000000000000000000000000000000000602082015250565b6000613243602a8361263d565b915061324e826131e7565b604082019050919050565b6000602082019050818103600083015261327281613236565b9050919050565b7f4e487b7100000000000000000000000000000000000000000000000000000000600052601160045260246000fd5b60006132b3826126ed565b91506132be836126ed565b9250827fffffffffffffffffffffffffffffffffffffffffffffffffffffffffffffffff038211156132f3576132f2613279565b5b828201905092915050565b6000613309826126ed565b91507fffffffffffffffffffffffffffffffffffffffffffffffffffffffffffffffff82141561333c5761333b613279565b5b600182019050919050565b7f45524337323155524953746f726167653a2055524920717565727920666f722060008201527f6e6f6e6578697374656e7420746f6b656e000000000000000000000000000000602082015250565b60006133a360318361263d565b91506133ae82613347565b604082019050919050565b600060208201905081810360008301526133d281613396565b9050919050565b600081905092915050565b60006133ef82612632565b6133f981856133d9565b935061340981856020860161264e565b80840191505092915050565b600061342182856133e4565b915061342d82846133e4565b91508190509392505050565b6000819050919050565b61344c81613439565b82525050565b600067ffffffffffffffff82169050919050565b61346f81613452565b82525050565b600061ffff82169050919050565b61348c81613475565b82525050565b600063ffffffff82169050919050565b6134ab81613492565b82525050565b600060a0820190506134c66000830188613443565b6134d36020830187613466565b6134e06040830186613483565b6134ed60608301856134a2565b6134fa60808301846134a2565b9695505050505050565b600081519050613513816126f7565b92915050565b60006020828403121561352f5761352e61256d565b5b600061353d84828501613504565b91505092915050565b7f4f776e61626c653a206e6577206f776e657220697320746865207a65726f206160008201527f6464726573730000000000000000000000000000000000000000000000000000602082015250565b60006135a260268361263d565b91506135ad82613546565b604082019050919050565b600060208201905081810360008301526135d181613595565b9050919050565b7f4e487b7100000000000000000000000000000000000000000000000000000000600052601260045260246000fd5b6000613612826126ed565b915061361d836126ed565b92508261362d5761362c6135d8565b5b828206905092915050565b600060408201905061364d6000830185612c00565b61365a6020830184612782565b9392505050565b7f4552433732313a206f70657261746f7220717565727920666f72206e6f6e657860008201527f697374656e7420746f6b656e0000000000000000000000000000000000000000602082015250565b60006136bd602c8361263d565b91506136c882613661565b604082019050919050565b600060208201905081810360008301526136ec816136b0565b9050919050565b7f4552433732313a207472616e736665722066726f6d20696e636f72726563742060008201527f6f776e6572000000000000000000000000000000000000000000000000000000602082015250565b600061374f60258361263d565b915061375a826136f3565b604082019050919050565b6000602082019050818103600083015261377e81613742565b9050919050565b7f4552433732313a207472616e7366657220746f20746865207a65726f2061646460008201527f7265737300000000000000000000000000000000000000000000000000000000602082015250565b60006137e160248361263d565b91506137ec82613785565b604082019050919050565b60006020820190508181036000830152613810816137d4565b9050919050565b6000613822826126ed565b915061382d836126ed565b9250828210156138405761383f613279565b5b828203905092915050565b7f4552433732313a20617070726f766520746f2063616c6c657200000000000000600082015250565b600061388160198361263d565b915061388c8261384b565b602082019050919050565b600060208201905081810360008301526138b081613874565b9050919050565b7f4552433732313a207472616e7366657220746f206e6f6e20455243373231526560008201527f63656976657220696d706c656d656e7465720000000000000000000000000000602082015250565b600061391360328361263d565b915061391e826138b7565b604082019050919050565b6000602082019050818103600083015261394281613906565b9050919050565b7f4552433732314d657461646174613a2055524920717565727920666f72206e6f60008201527f6e6578697374656e7420746f6b656e0000000000000000000000000000000000602082015250565b60006139a5602f8361263d565b91506139b082613949565b604082019050919050565b600060208201905081810360008301526139d481613998565b9050919050565b7f45524337323155524953746f726167653a2055524920736574206f66206e6f6e60008201527f6578697374656e7420746f6b656e000000000000000000000000000000000000602082015250565b6000613a37602e8361263d565b9150613a42826139db565b604082019050919050565b60006020820190508181036000830152613a6681613a2a565b9050919050565b600081519050919050565b600082825260208201905092915050565b6000613a9482613a6d565b613a9e8185613a78565b9350613aae81856020860161264e565b613ab781612681565b840191505092915050565b6000608082019050613ad76000830187612782565b613ae46020830186612782565b613af16040830185612ad5565b8181036060830152613b038184613a89565b905095945050505050565b600081519050613b1d816125a3565b92915050565b600060208284031215613b3957613b3861256d565b5b6000613b4784828501613b0e565b91505092915050565b6000613b5b826126ed565b9150613b66836126ed565b925082613b7657613b756135d8565b5b828204905092915050565b7f4552433732313a206d696e7420746f20746865207a65726f2061646472657373600082015250565b6000613bb760208361263d565b9150613bc282613b81565b602082019050919050565b60006020820190508181036000830152613be681613baa565b9050919050565b7f4552433732313a20746f6b656e20616c7265616479206d696e74656400000000600082015250565b6000613c23601c8361263d565b9150613c2e82613bed565b602082019050919050565b60006020820190508181036000830152613c5281613c16565b905091905056fea2646970667358221220e5221c2952077254c266635eb93ca55c4761b9b146230855fc3754c4f2cc2dc864736f6c63430008080033",
  "linkReferences": {},
  "deployedLinkReferences": {}
}